{
  "_format": "hh-sol-artifact-1",
  "contractName": "CertificateFB333Builders",
  "sourceName": "contracts/CertificateFB333Builders.sol",
  "abi": [
    {
      "inputs": [],
      "stateMutability": "nonpayable",
      "type": "constructor"
    },
    {
      "anonymous": false,
      "inputs": [
        {
          "indexed": true,
          "internalType": "address",
          "name": "owner",
          "type": "address"
        },
        {
          "indexed": true,
          "internalType": "address",
          "name": "approved",
          "type": "address"
        },
        {
          "indexed": true,
          "internalType": "uint256",
          "name": "tokenId",
          "type": "uint256"
        }
      ],
      "name": "Approval",
      "type": "event"
    },
    {
      "anonymous": false,
      "inputs": [
        {
          "indexed": true,
          "internalType": "address",
          "name": "owner",
          "type": "address"
        },
        {
          "indexed": true,
          "internalType": "address",
          "name": "operator",
          "type": "address"
        },
        {
          "indexed": false,
          "internalType": "bool",
          "name": "approved",
          "type": "bool"
        }
      ],
      "name": "ApprovalForAll",
      "type": "event"
    },
    {
      "anonymous": false,
      "inputs": [
        {
          "indexed": true,
          "internalType": "address",
          "name": "previousOwner",
          "type": "address"
        },
        {
          "indexed": true,
          "internalType": "address",
          "name": "newOwner",
          "type": "address"
        }
      ],
      "name": "OwnershipTransferred",
      "type": "event"
    },
    {
      "anonymous": false,
      "inputs": [
        {
          "indexed": false,
          "internalType": "address",
          "name": "account",
          "type": "address"
        }
      ],
      "name": "Paused",
      "type": "event"
    },
    {
      "anonymous": false,
      "inputs": [
        {
          "indexed": true,
          "internalType": "address",
          "name": "from",
          "type": "address"
        },
        {
          "indexed": true,
          "internalType": "address",
          "name": "to",
          "type": "address"
        },
        {
          "indexed": true,
          "internalType": "uint256",
          "name": "tokenId",
          "type": "uint256"
        }
      ],
      "name": "Transfer",
      "type": "event"
    },
    {
      "anonymous": false,
      "inputs": [
        {
          "indexed": false,
          "internalType": "address",
          "name": "account",
          "type": "address"
        }
      ],
      "name": "Unpaused",
      "type": "event"
    },
    {
      "inputs": [
        {
          "internalType": "address",
          "name": "to",
          "type": "address"
        },
        {
          "internalType": "uint256",
          "name": "tokenId",
          "type": "uint256"
        }
      ],
      "name": "approve",
      "outputs": [],
      "stateMutability": "nonpayable",
      "type": "function"
    },
    {
      "inputs": [
        {
          "internalType": "address",
          "name": "owner",
          "type": "address"
        }
      ],
      "name": "balanceOf",
      "outputs": [
        {
          "internalType": "uint256",
          "name": "",
          "type": "uint256"
        }
      ],
      "stateMutability": "view",
      "type": "function"
    },
    {
      "inputs": [
        {
          "internalType": "uint256",
          "name": "tokenId",
          "type": "uint256"
        }
      ],
      "name": "burn",
      "outputs": [],
      "stateMutability": "nonpayable",
      "type": "function"
    },
    {
      "inputs": [
        {
          "internalType": "uint256",
          "name": "tokenId",
          "type": "uint256"
        }
      ],
      "name": "getApproved",
      "outputs": [
        {
          "internalType": "address",
          "name": "",
          "type": "address"
        }
      ],
      "stateMutability": "view",
      "type": "function"
    },
    {
      "inputs": [
        {
          "internalType": "address",
          "name": "owner",
          "type": "address"
        },
        {
          "internalType": "address",
          "name": "operator",
          "type": "address"
        }
      ],
      "name": "isApprovedForAll",
      "outputs": [
        {
          "internalType": "bool",
          "name": "",
          "type": "bool"
        }
      ],
      "stateMutability": "view",
      "type": "function"
    },
    {
      "inputs": [
        {
          "internalType": "string",
          "name": "uri",
          "type": "string"
        }
      ],
      "name": "mint",
      "outputs": [],
      "stateMutability": "nonpayable",
      "type": "function"
    },
    {
      "inputs": [],
      "name": "name",
      "outputs": [
        {
          "internalType": "string",
          "name": "",
          "type": "string"
        }
      ],
      "stateMutability": "view",
      "type": "function"
    },
    {
      "inputs": [],
      "name": "owner",
      "outputs": [
        {
          "internalType": "address",
          "name": "",
          "type": "address"
        }
      ],
      "stateMutability": "view",
      "type": "function"
    },
    {
      "inputs": [
        {
          "internalType": "uint256",
          "name": "tokenId",
          "type": "uint256"
        }
      ],
      "name": "ownerOf",
      "outputs": [
        {
          "internalType": "address",
          "name": "",
          "type": "address"
        }
      ],
      "stateMutability": "view",
      "type": "function"
    },
    {
      "inputs": [],
      "name": "pause",
      "outputs": [],
      "stateMutability": "nonpayable",
      "type": "function"
    },
    {
      "inputs": [],
      "name": "paused",
      "outputs": [
        {
          "internalType": "bool",
          "name": "",
          "type": "bool"
        }
      ],
      "stateMutability": "view",
      "type": "function"
    },
    {
      "inputs": [],
      "name": "renounceOwnership",
      "outputs": [],
      "stateMutability": "nonpayable",
      "type": "function"
    },
    {
      "inputs": [
        {
          "internalType": "address",
          "name": "to",
          "type": "address"
        }
      ],
      "name": "resetBalances",
      "outputs": [],
      "stateMutability": "nonpayable",
      "type": "function"
    },
    {
      "inputs": [
        {
          "internalType": "address",
          "name": "from",
          "type": "address"
        },
        {
          "internalType": "address",
          "name": "to",
          "type": "address"
        },
        {
          "internalType": "uint256",
          "name": "tokenId",
          "type": "uint256"
        }
      ],
      "name": "safeTransferFrom",
      "outputs": [],
      "stateMutability": "nonpayable",
      "type": "function"
    },
    {
      "inputs": [
        {
          "internalType": "address",
          "name": "from",
          "type": "address"
        },
        {
          "internalType": "address",
          "name": "to",
          "type": "address"
        },
        {
          "internalType": "uint256",
          "name": "tokenId",
          "type": "uint256"
        },
        {
          "internalType": "bytes",
          "name": "_data",
          "type": "bytes"
        }
      ],
      "name": "safeTransferFrom",
      "outputs": [],
      "stateMutability": "nonpayable",
      "type": "function"
    },
    {
      "inputs": [
        {
          "internalType": "address",
          "name": "operator",
          "type": "address"
        },
        {
          "internalType": "bool",
          "name": "approved",
          "type": "bool"
        }
      ],
      "name": "setApprovalForAll",
      "outputs": [],
      "stateMutability": "nonpayable",
      "type": "function"
    },
    {
      "inputs": [
        {
          "internalType": "uint256",
          "name": "tokenId",
          "type": "uint256"
        },
        {
          "internalType": "string",
          "name": "uri",
          "type": "string"
        }
      ],
      "name": "setTokenURI",
      "outputs": [],
      "stateMutability": "nonpayable",
      "type": "function"
    },
    {
      "inputs": [
        {
          "internalType": "bytes4",
          "name": "interfaceId",
          "type": "bytes4"
        }
      ],
      "name": "supportsInterface",
      "outputs": [
        {
          "internalType": "bool",
          "name": "",
          "type": "bool"
        }
      ],
      "stateMutability": "view",
      "type": "function"
    },
    {
      "inputs": [],
      "name": "symbol",
      "outputs": [
        {
          "internalType": "string",
          "name": "",
          "type": "string"
        }
      ],
      "stateMutability": "view",
      "type": "function"
    },
    {
      "inputs": [
        {
          "internalType": "uint256",
          "name": "tokenId",
          "type": "uint256"
        }
      ],
      "name": "tokenURI",
      "outputs": [
        {
          "internalType": "string",
          "name": "",
          "type": "string"
        }
      ],
      "stateMutability": "view",
      "type": "function"
    },
    {
      "inputs": [
        {
          "internalType": "address",
          "name": "from",
          "type": "address"
        },
        {
          "internalType": "address",
          "name": "to",
          "type": "address"
        },
        {
          "internalType": "uint256",
          "name": "tokenId",
          "type": "uint256"
        }
      ],
      "name": "transferFrom",
      "outputs": [],
      "stateMutability": "nonpayable",
      "type": "function"
    },
    {
      "inputs": [
        {
          "internalType": "address",
          "name": "newOwner",
          "type": "address"
        }
      ],
      "name": "transferOwnership",
      "outputs": [],
      "stateMutability": "nonpayable",
      "type": "function"
    },
    {
      "inputs": [],
      "name": "unpause",
      "outputs": [],
      "stateMutability": "nonpayable",
      "type": "function"
    }
  ],
  "bytecode": "0x60806040523480156200001157600080fd5b506040518060400160405280600e81526020017f3333332e4275696c6465727346420000000000000000000000000000000000008152506040518060400160405280600681526020017f3333334246420000000000000000000000000000000000000000000000000000815250816000908051906020019062000096929190620001c1565b508060019080519060200190620000af929190620001c1565b505050620000d2620000c6620000f360201b60201c565b620000fb60201b60201c565b6000600760146101000a81548160ff021916908315150217905550620002d6565b600033905090565b6000600760009054906101000a900473ffffffffffffffffffffffffffffffffffffffff16905081600760006101000a81548173ffffffffffffffffffffffffffffffffffffffff021916908373ffffffffffffffffffffffffffffffffffffffff1602179055508173ffffffffffffffffffffffffffffffffffffffff168173ffffffffffffffffffffffffffffffffffffffff167f8be0079c531659141344cd1fd0a4f28419497f9722a3daafe3b4186f6b6457e060405160405180910390a35050565b828054620001cf9062000271565b90600052602060002090601f016020900481019282620001f357600085556200023f565b82601f106200020e57805160ff19168380011785556200023f565b828001600101855582156200023f579182015b828111156200023e57825182559160200191906001019062000221565b5b5090506200024e919062000252565b5090565b5b808211156200026d57600081600090555060010162000253565b5090565b600060028204905060018216806200028a57607f821691505b60208210811415620002a157620002a0620002a7565b5b50919050565b7f4e487b7100000000000000000000000000000000000000000000000000000000600052602260045260246000fd5b613a6980620002e66000396000f3fe608060405234801561001057600080fd5b506004361061014d5760003560e01c80636352211e116100c3578063a22cb4651161007c578063a22cb46514610350578063b88d4fde1461036c578063c87b56dd14610388578063d85d3d27146103b8578063e985e9c5146103d4578063f2fde38b146104045761014d565b80636352211e146102a057806370a08231146102d0578063715018a6146103005780638456cb591461030a5780638da5cb5b1461031457806395d89b41146103325761014d565b80631bdbee0a116101155780631bdbee0a1461020857806323b872dd146102245780633f4ba83a1461024057806342842e0e1461024a57806342966c68146102665780635c975abb146102825761014d565b806301ffc9a71461015257806306fdde0314610182578063081812fc146101a0578063095ea7b3146101d0578063162094c4146101ec575b600080fd5b61016c600480360381019061016791906127d3565b610420565b6040516101799190612d40565b60405180910390f35b61018a610502565b6040516101979190612d5b565b60405180910390f35b6101ba60048036038101906101b59190612866565b610594565b6040516101c79190612cd9565b60405180910390f35b6101ea60048036038101906101e59190612797565b610619565b005b6102066004803603810190610201919061288f565b610731565b005b610222600480360381019061021d919061262c565b6107bb565b005b61023e60048036038101906102399190612691565b610925565b005b610248610985565b005b610264600480360381019061025f9190612691565b610a0b565b005b610280600480360381019061027b9190612866565b610a2b565b005b61028a610ab3565b6040516102979190612d40565b60405180910390f35b6102ba60048036038101906102b59190612866565b610aca565b6040516102c79190612cd9565b60405180910390f35b6102ea60048036038101906102e5919061262c565b610b7c565b6040516102f7919061303d565b60405180910390f35b610308610c34565b005b610312610cbc565b005b61031c610d42565b6040516103299190612cd9565b60405180910390f35b61033a610d6c565b6040516103479190612d5b565b60405180910390f35b61036a6004803603810190610365919061275b565b610dfe565b005b610386600480360381019061038191906126e0565b610e14565b005b6103a2600480360381019061039d9190612866565b610e76565b6040516103af9190612d5b565b60405180910390f35b6103d260048036038101906103cd9190612825565b610e88565b005b6103ee60048036038101906103e99190612655565b610fec565b6040516103fb9190612d40565b60405180910390f35b61041e6004803603810190610419919061262c565b611080565b005b60007f80ac58cd000000000000000000000000000000000000000000000000000000007bffffffffffffffffffffffffffffffffffffffffffffffffffffffff1916827bffffffffffffffffffffffffffffffffffffffffffffffffffffffff191614806104eb57507f5b5e139f000000000000000000000000000000000000000000000000000000007bffffffffffffffffffffffffffffffffffffffffffffffffffffffff1916827bffffffffffffffffffffffffffffffffffffffffffffffffffffffff1916145b806104fb57506104fa82611178565b5b9050919050565b60606000805461051190613293565b80601f016020809104026020016040519081016040528092919081815260200182805461053d90613293565b801561058a5780601f1061055f5761010080835404028352916020019161058a565b820191906000526020600020905b81548152906001019060200180831161056d57829003601f168201915b5050505050905090565b600061059f826111e2565b6105de576040517f08c379a00000000000000000000000000000000000000000000000000000000081526004016105d590612f9d565b60405180910390fd5b6004600083815260200190815260200160002060009054906101000a900473ffffffffffffffffffffffffffffffffffffffff169050919050565b600061062482610aca565b90508073ffffffffffffffffffffffffffffffffffffffff168373ffffffffffffffffffffffffffffffffffffffff161415610695576040517f08c379a000000000000000000000000000000000000000000000000000000000815260040161068c90612ffd565b60405180910390fd5b8073ffffffffffffffffffffffffffffffffffffffff166106b461124e565b73ffffffffffffffffffffffffffffffffffffffff1614806106e357506106e2816106dd61124e565b610fec565b5b610722576040517f08c379a000000000000000000000000000000000000000000000000000000000815260040161071990612ebd565b60405180910390fd5b61072c8383611256565b505050565b61073961124e565b73ffffffffffffffffffffffffffffffffffffffff16610757610d42565b73ffffffffffffffffffffffffffffffffffffffff16146107ad576040517f08c379a00000000000000000000000000000000000000000000000000000000081526004016107a490612fbd565b60405180910390fd5b6107b7828261130f565b5050565b6107c361124e565b73ffffffffffffffffffffffffffffffffffffffff166107e1610d42565b73ffffffffffffffffffffffffffffffffffffffff1614610837576040517f08c379a000000000000000000000000000000000000000000000000000000000815260040161082e90612fbd565b60405180910390fd5b60011515600960008373ffffffffffffffffffffffffffffffffffffffff1673ffffffffffffffffffffffffffffffffffffffff16815260200190815260200160002060009054906101000a900460ff161515146108ca576040517f08c379a00000000000000000000000000000000000000000000000000000000081526004016108c190612f3d565b60405180910390fd5b6000600960008373ffffffffffffffffffffffffffffffffffffffff1673ffffffffffffffffffffffffffffffffffffffff16815260200190815260200160002060006101000a81548160ff02191690831515021790555050565b61093661093061124e565b82611383565b610975576040517f08c379a000000000000000000000000000000000000000000000000000000000815260040161096c9061301d565b60405180910390fd5b610980838383611461565b505050565b61098d61124e565b73ffffffffffffffffffffffffffffffffffffffff166109ab610d42565b73ffffffffffffffffffffffffffffffffffffffff1614610a01576040517f08c379a00000000000000000000000000000000000000000000000000000000081526004016109f890612fbd565b60405180910390fd5b610a096116c8565b565b610a2683838360405180602001604052806000815250610e14565b505050565b610a3361124e565b73ffffffffffffffffffffffffffffffffffffffff16610a51610d42565b73ffffffffffffffffffffffffffffffffffffffff1614610aa7576040517f08c379a0000000000000000000000000000000000000000000000000000000008152600401610a9e90612fbd565b60405180910390fd5b610ab08161176a565b50565b6000600760149054906101000a900460ff16905090565b6000806002600084815260200190815260200160002060009054906101000a900473ffffffffffffffffffffffffffffffffffffffff169050600073ffffffffffffffffffffffffffffffffffffffff168173ffffffffffffffffffffffffffffffffffffffff161415610b73576040517f08c379a0000000000000000000000000000000000000000000000000000000008152600401610b6a90612efd565b60405180910390fd5b80915050919050565b60008073ffffffffffffffffffffffffffffffffffffffff168273ffffffffffffffffffffffffffffffffffffffff161415610bed576040517f08c379a0000000000000000000000000000000000000000000000000000000008152600401610be490612edd565b60405180910390fd5b600360008373ffffffffffffffffffffffffffffffffffffffff1673ffffffffffffffffffffffffffffffffffffffff168152602001908152602001600020549050919050565b610c3c61124e565b73ffffffffffffffffffffffffffffffffffffffff16610c5a610d42565b73ffffffffffffffffffffffffffffffffffffffff1614610cb0576040517f08c379a0000000000000000000000000000000000000000000000000000000008152600401610ca790612fbd565b60405180910390fd5b610cba6000611776565b565b610cc461124e565b73ffffffffffffffffffffffffffffffffffffffff16610ce2610d42565b73ffffffffffffffffffffffffffffffffffffffff1614610d38576040517f08c379a0000000000000000000000000000000000000000000000000000000008152600401610d2f90612fbd565b60405180910390fd5b610d4061183c565b565b6000600760009054906101000a900473ffffffffffffffffffffffffffffffffffffffff16905090565b606060018054610d7b90613293565b80601f0160208091040260200160405190810160405280929190818152602001828054610da790613293565b8015610df45780601f10610dc957610100808354040283529160200191610df4565b820191906000526020600020905b815481529060010190602001808311610dd757829003601f168201915b5050505050905090565b610e10610e0961124e565b83836118df565b5050565b610e25610e1f61124e565b83611383565b610e64576040517f08c379a0000000000000000000000000000000000000000000000000000000008152600401610e5b9061301d565b60405180910390fd5b610e7084848484611a4c565b50505050565b6060610e8182611aa8565b9050919050565b610e90610ab3565b15610ed0576040517f08c379a0000000000000000000000000000000000000000000000000000000008152600401610ec790612e9d565b60405180910390fd5b60011515600960003373ffffffffffffffffffffffffffffffffffffffff1673ffffffffffffffffffffffffffffffffffffffff16815260200190815260200160002060009054906101000a900460ff1615151415610f64576040517f08c379a0000000000000000000000000000000000000000000000000000000008152600401610f5b90612e3d565b60405180910390fd5b6001600960003373ffffffffffffffffffffffffffffffffffffffff1673ffffffffffffffffffffffffffffffffffffffff16815260200190815260200160002060006101000a81548160ff0219169083151502179055506000610fc86008611bfa565b9050610fd46008611c08565b610fde3382611c1e565b610fe8818361130f565b5050565b6000600560008473ffffffffffffffffffffffffffffffffffffffff1673ffffffffffffffffffffffffffffffffffffffff16815260200190815260200160002060008373ffffffffffffffffffffffffffffffffffffffff1673ffffffffffffffffffffffffffffffffffffffff16815260200190815260200160002060009054906101000a900460ff16905092915050565b61108861124e565b73ffffffffffffffffffffffffffffffffffffffff166110a6610d42565b73ffffffffffffffffffffffffffffffffffffffff16146110fc576040517f08c379a00000000000000000000000000000000000000000000000000000000081526004016110f390612fbd565b60405180910390fd5b600073ffffffffffffffffffffffffffffffffffffffff168173ffffffffffffffffffffffffffffffffffffffff16141561116c576040517f08c379a000000000000000000000000000000000000000000000000000000000815260040161116390612dbd565b60405180910390fd5b61117581611776565b50565b60007f01ffc9a7000000000000000000000000000000000000000000000000000000007bffffffffffffffffffffffffffffffffffffffffffffffffffffffff1916827bffffffffffffffffffffffffffffffffffffffffffffffffffffffff1916149050919050565b60008073ffffffffffffffffffffffffffffffffffffffff166002600084815260200190815260200160002060009054906101000a900473ffffffffffffffffffffffffffffffffffffffff1673ffffffffffffffffffffffffffffffffffffffff1614159050919050565b600033905090565b816004600083815260200190815260200160002060006101000a81548173ffffffffffffffffffffffffffffffffffffffff021916908373ffffffffffffffffffffffffffffffffffffffff160217905550808273ffffffffffffffffffffffffffffffffffffffff166112c983610aca565b73ffffffffffffffffffffffffffffffffffffffff167f8c5be1e5ebec7d5bd14f71427d1e84f3dd0314c0f7b2291e5b200ac8c7c3b92560405160405180910390a45050565b611318826111e2565b611357576040517f08c379a000000000000000000000000000000000000000000000000000000000815260040161134e90612f1d565b60405180910390fd5b8060066000848152602001908152602001600020908051906020019061137e929190612410565b505050565b600061138e826111e2565b6113cd576040517f08c379a00000000000000000000000000000000000000000000000000000000081526004016113c490612e7d565b60405180910390fd5b60006113d883610aca565b90508073ffffffffffffffffffffffffffffffffffffffff168473ffffffffffffffffffffffffffffffffffffffff16148061141a57506114198185610fec565b5b8061145857508373ffffffffffffffffffffffffffffffffffffffff1661144084610594565b73ffffffffffffffffffffffffffffffffffffffff16145b91505092915050565b8273ffffffffffffffffffffffffffffffffffffffff1661148182610aca565b73ffffffffffffffffffffffffffffffffffffffff16146114d7576040517f08c379a00000000000000000000000000000000000000000000000000000000081526004016114ce90612ddd565b60405180910390fd5b600073ffffffffffffffffffffffffffffffffffffffff168273ffffffffffffffffffffffffffffffffffffffff161415611547576040517f08c379a000000000000000000000000000000000000000000000000000000000815260040161153e90612e1d565b60405180910390fd5b611552838383611c3c565b61155d600082611256565b6001600360008573ffffffffffffffffffffffffffffffffffffffff1673ffffffffffffffffffffffffffffffffffffffff16815260200190815260200160002060008282546115ad91906131a9565b925050819055506001600360008473ffffffffffffffffffffffffffffffffffffffff1673ffffffffffffffffffffffffffffffffffffffff16815260200190815260200160002060008282546116049190613122565b92505081905550816002600083815260200190815260200160002060006101000a81548173ffffffffffffffffffffffffffffffffffffffff021916908373ffffffffffffffffffffffffffffffffffffffff160217905550808273ffffffffffffffffffffffffffffffffffffffff168473ffffffffffffffffffffffffffffffffffffffff167fddf252ad1be2c89b69c2b068fc378daa952ba7f163c4a11628f55a4df523b3ef60405160405180910390a46116c3838383611c41565b505050565b6116d0610ab3565b61170f576040517f08c379a000000000000000000000000000000000000000000000000000000000815260040161170690612d7d565b60405180910390fd5b6000600760146101000a81548160ff0219169083151502179055507f5db9ee0a495bf2e6ff9c91a7834c1ba4fdd244a5e8aa4e537bd38aeae4b073aa61175361124e565b6040516117609190612cd9565b60405180910390a1565b61177381611c46565b50565b6000600760009054906101000a900473ffffffffffffffffffffffffffffffffffffffff16905081600760006101000a81548173ffffffffffffffffffffffffffffffffffffffff021916908373ffffffffffffffffffffffffffffffffffffffff1602179055508173ffffffffffffffffffffffffffffffffffffffff168173ffffffffffffffffffffffffffffffffffffffff167f8be0079c531659141344cd1fd0a4f28419497f9722a3daafe3b4186f6b6457e060405160405180910390a35050565b611844610ab3565b15611884576040517f08c379a000000000000000000000000000000000000000000000000000000000815260040161187b90612e9d565b60405180910390fd5b6001600760146101000a81548160ff0219169083151502179055507f62e78cea01bee320cd4e420270b5ea74000d11b0c9f74754ebdbfc544b05a2586118c861124e565b6040516118d59190612cd9565b60405180910390a1565b8173ffffffffffffffffffffffffffffffffffffffff168373ffffffffffffffffffffffffffffffffffffffff16141561194e576040517f08c379a000000000000000000000000000000000000000000000000000000000815260040161194590612e5d565b60405180910390fd5b80600560008573ffffffffffffffffffffffffffffffffffffffff1673ffffffffffffffffffffffffffffffffffffffff16815260200190815260200160002060008473ffffffffffffffffffffffffffffffffffffffff1673ffffffffffffffffffffffffffffffffffffffff16815260200190815260200160002060006101000a81548160ff0219169083151502179055508173ffffffffffffffffffffffffffffffffffffffff168373ffffffffffffffffffffffffffffffffffffffff167f17307eab39ab6107e8899845ad3d59bd9653f200f220920489ca2b5937696c3183604051611a3f9190612d40565b60405180910390a3505050565b611a57848484611461565b611a6384848484611c99565b611aa2576040517f08c379a0000000000000000000000000000000000000000000000000000000008152600401611a9990612d9d565b60405180910390fd5b50505050565b6060611ab3826111e2565b611af2576040517f08c379a0000000000000000000000000000000000000000000000000000000008152600401611ae990612f7d565b60405180910390fd5b6000600660008481526020019081526020016000208054611b1290613293565b80601f0160208091040260200160405190810160405280929190818152602001828054611b3e90613293565b8015611b8b5780601f10611b6057610100808354040283529160200191611b8b565b820191906000526020600020905b815481529060010190602001808311611b6e57829003601f168201915b505050505090506000611b9c611e30565b9050600081511415611bb2578192505050611bf5565b600082511115611be7578082604051602001611bcf929190612cb5565b60405160208183030381529060405292505050611bf5565b611bf084611e47565b925050505b919050565b600081600001549050919050565b6001816000016000828254019250508190555050565b611c38828260405180602001604052806000815250611eee565b5050565b505050565b505050565b611c4f81611f49565b6000600660008381526020019081526020016000208054611c6f90613293565b905014611c9657600660008281526020019081526020016000206000611c959190612496565b5b50565b6000611cba8473ffffffffffffffffffffffffffffffffffffffff16612066565b15611e23578373ffffffffffffffffffffffffffffffffffffffff1663150b7a02611ce361124e565b8786866040518563ffffffff1660e01b8152600401611d059493929190612cf4565b602060405180830381600087803b158015611d1f57600080fd5b505af1925050508015611d5057506040513d601f19601f82011682018060405250810190611d4d91906127fc565b60015b611dd3573d8060008114611d80576040519150601f19603f3d011682016040523d82523d6000602084013e611d85565b606091505b50600081511415611dcb576040517f08c379a0000000000000000000000000000000000000000000000000000000008152600401611dc290612d9d565b60405180910390fd5b805181602001fd5b63150b7a0260e01b7bffffffffffffffffffffffffffffffffffffffffffffffffffffffff1916817bffffffffffffffffffffffffffffffffffffffffffffffffffffffff191614915050611e28565b600190505b949350505050565b606060405180602001604052806000815250905090565b6060611e52826111e2565b611e91576040517f08c379a0000000000000000000000000000000000000000000000000000000008152600401611e8890612fdd565b60405180910390fd5b6000611e9b611e30565b90506000815111611ebb5760405180602001604052806000815250611ee6565b80611ec584612089565b604051602001611ed6929190612cb5565b6040516020818303038152906040525b915050919050565b611ef88383612236565b611f056000848484611c99565b611f44576040517f08c379a0000000000000000000000000000000000000000000000000000000008152600401611f3b90612d9d565b60405180910390fd5b505050565b6000611f5482610aca565b9050611f6281600084611c3c565b611f6d600083611256565b6001600360008373ffffffffffffffffffffffffffffffffffffffff1673ffffffffffffffffffffffffffffffffffffffff1681526020019081526020016000206000828254611fbd91906131a9565b925050819055506002600083815260200190815260200160002060006101000a81549073ffffffffffffffffffffffffffffffffffffffff021916905581600073ffffffffffffffffffffffffffffffffffffffff168273ffffffffffffffffffffffffffffffffffffffff167fddf252ad1be2c89b69c2b068fc378daa952ba7f163c4a11628f55a4df523b3ef60405160405180910390a461206281600084611c41565b5050565b6000808273ffffffffffffffffffffffffffffffffffffffff163b119050919050565b606060008214156120d1576040518060400160405280600181526020017f30000000000000000000000000000000000000000000000000000000000000008152509050612231565b600082905060005b600082146121035780806120ec906132f6565b915050600a826120fc9190613178565b91506120d9565b60008167ffffffffffffffff811115612145577f4e487b7100000000000000000000000000000000000000000000000000000000600052604160045260246000fd5b6040519080825280601f01601f1916602001820160405280156121775781602001600182028036833780820191505090505b5090505b6000851461222a5760018261219091906131a9565b9150600a8561219f919061333f565b60306121ab9190613122565b60f81b8183815181106121e7577f4e487b7100000000000000000000000000000000000000000000000000000000600052603260045260246000fd5b60200101907effffffffffffffffffffffffffffffffffffffffffffffffffffffffffffff1916908160001a905350600a856122239190613178565b945061217b565b8093505050505b919050565b600073ffffffffffffffffffffffffffffffffffffffff168273ffffffffffffffffffffffffffffffffffffffff1614156122a6576040517f08c379a000000000000000000000000000000000000000000000000000000000815260040161229d90612f5d565b60405180910390fd5b6122af816111e2565b156122ef576040517f08c379a00000000000000000000000000000000000000000000000000000000081526004016122e690612dfd565b60405180910390fd5b6122fb60008383611c3c565b6001600360008473ffffffffffffffffffffffffffffffffffffffff1673ffffffffffffffffffffffffffffffffffffffff168152602001908152602001600020600082825461234b9190613122565b92505081905550816002600083815260200190815260200160002060006101000a81548173ffffffffffffffffffffffffffffffffffffffff021916908373ffffffffffffffffffffffffffffffffffffffff160217905550808273ffffffffffffffffffffffffffffffffffffffff16600073ffffffffffffffffffffffffffffffffffffffff167fddf252ad1be2c89b69c2b068fc378daa952ba7f163c4a11628f55a4df523b3ef60405160405180910390a461240c60008383611c41565b5050565b82805461241c90613293565b90600052602060002090601f01602090048101928261243e5760008555612485565b82601f1061245757805160ff1916838001178555612485565b82800160010185558215612485579182015b82811115612484578251825591602001919060010190612469565b5b50905061249291906124d6565b5090565b5080546124a290613293565b6000825580601f106124b457506124d3565b601f0160209004906000526020600020908101906124d291906124d6565b5b50565b5b808211156124ef5760008160009055506001016124d7565b5090565b60006125066125018461307d565b613058565b90508281526020810184848401111561251e57600080fd5b612529848285613251565b509392505050565b600061254461253f846130ae565b613058565b90508281526020810184848401111561255c57600080fd5b612567848285613251565b509392505050565b60008135905061257e816139d7565b92915050565b600081359050612593816139ee565b92915050565b6000813590506125a881613a05565b92915050565b6000815190506125bd81613a05565b92915050565b600082601f8301126125d457600080fd5b81356125e48482602086016124f3565b91505092915050565b600082601f8301126125fe57600080fd5b813561260e848260208601612531565b91505092915050565b60008135905061262681613a1c565b92915050565b60006020828403121561263e57600080fd5b600061264c8482850161256f565b91505092915050565b6000806040838503121561266857600080fd5b60006126768582860161256f565b92505060206126878582860161256f565b9150509250929050565b6000806000606084860312156126a657600080fd5b60006126b48682870161256f565b93505060206126c58682870161256f565b92505060406126d686828701612617565b9150509250925092565b600080600080608085870312156126f657600080fd5b60006127048782880161256f565b94505060206127158782880161256f565b935050604061272687828801612617565b925050606085013567ffffffffffffffff81111561274357600080fd5b61274f878288016125c3565b91505092959194509250565b6000806040838503121561276e57600080fd5b600061277c8582860161256f565b925050602061278d85828601612584565b9150509250929050565b600080604083850312156127aa57600080fd5b60006127b88582860161256f565b92505060206127c985828601612617565b9150509250929050565b6000602082840312156127e557600080fd5b60006127f384828501612599565b91505092915050565b60006020828403121561280e57600080fd5b600061281c848285016125ae565b91505092915050565b60006020828403121561283757600080fd5b600082013567ffffffffffffffff81111561285157600080fd5b61285d848285016125ed565b91505092915050565b60006020828403121561287857600080fd5b600061288684828501612617565b91505092915050565b600080604083850312156128a257600080fd5b60006128b085828601612617565b925050602083013567ffffffffffffffff8111156128cd57600080fd5b6128d9858286016125ed565b9150509250929050565b6128ec816131dd565b82525050565b6128fb816131ef565b82525050565b600061290c826130df565b61291681856130f5565b9350612926818560208601613260565b61292f8161342c565b840191505092915050565b6000612945826130ea565b61294f8185613106565b935061295f818560208601613260565b6129688161342c565b840191505092915050565b600061297e826130ea565b6129888185613117565b9350612998818560208601613260565b80840191505092915050565b60006129b1601483613106565b91506129bc8261343d565b602082019050919050565b60006129d4603283613106565b91506129df82613466565b604082019050919050565b60006129f7602683613106565b9150612a02826134b5565b604082019050919050565b6000612a1a602583613106565b9150612a2582613504565b604082019050919050565b6000612a3d601c83613106565b9150612a4882613553565b602082019050919050565b6000612a60602483613106565b9150612a6b8261357c565b604082019050919050565b6000612a83601283613106565b9150612a8e826135cb565b602082019050919050565b6000612aa6601983613106565b9150612ab1826135f4565b602082019050919050565b6000612ac9602c83613106565b9150612ad48261361d565b604082019050919050565b6000612aec601083613106565b9150612af78261366c565b602082019050919050565b6000612b0f603883613106565b9150612b1a82613695565b604082019050919050565b6000612b32602a83613106565b9150612b3d826136e4565b604082019050919050565b6000612b55602983613106565b9150612b6082613733565b604082019050919050565b6000612b78602e83613106565b9150612b8382613782565b604082019050919050565b6000612b9b601883613106565b9150612ba6826137d1565b602082019050919050565b6000612bbe602083613106565b9150612bc9826137fa565b602082019050919050565b6000612be1603183613106565b9150612bec82613823565b604082019050919050565b6000612c04602c83613106565b9150612c0f82613872565b604082019050919050565b6000612c27602083613106565b9150612c32826138c1565b602082019050919050565b6000612c4a602f83613106565b9150612c55826138ea565b604082019050919050565b6000612c6d602183613106565b9150612c7882613939565b604082019050919050565b6000612c90603183613106565b9150612c9b82613988565b604082019050919050565b612caf81613247565b82525050565b6000612cc18285612973565b9150612ccd8284612973565b91508190509392505050565b6000602082019050612cee60008301846128e3565b92915050565b6000608082019050612d0960008301876128e3565b612d1660208301866128e3565b612d236040830185612ca6565b8181036060830152612d358184612901565b905095945050505050565b6000602082019050612d5560008301846128f2565b92915050565b60006020820190508181036000830152612d75818461293a565b905092915050565b60006020820190508181036000830152612d96816129a4565b9050919050565b60006020820190508181036000830152612db6816129c7565b9050919050565b60006020820190508181036000830152612dd6816129ea565b9050919050565b60006020820190508181036000830152612df681612a0d565b9050919050565b60006020820190508181036000830152612e1681612a30565b9050919050565b60006020820190508181036000830152612e3681612a53565b9050919050565b60006020820190508181036000830152612e5681612a76565b9050919050565b60006020820190508181036000830152612e7681612a99565b9050919050565b60006020820190508181036000830152612e9681612abc565b9050919050565b60006020820190508181036000830152612eb681612adf565b9050919050565b60006020820190508181036000830152612ed681612b02565b9050919050565b60006020820190508181036000830152612ef681612b25565b9050919050565b60006020820190508181036000830152612f1681612b48565b9050919050565b60006020820190508181036000830152612f3681612b6b565b9050919050565b60006020820190508181036000830152612f5681612b8e565b9050919050565b60006020820190508181036000830152612f7681612bb1565b9050919050565b60006020820190508181036000830152612f9681612bd4565b9050919050565b60006020820190508181036000830152612fb681612bf7565b9050919050565b60006020820190508181036000830152612fd681612c1a565b9050919050565b60006020820190508181036000830152612ff681612c3d565b9050919050565b6000602082019050818103600083015261301681612c60565b9050919050565b6000602082019050818103600083015261303681612c83565b9050919050565b60006020820190506130526000830184612ca6565b92915050565b6000613062613073565b905061306e82826132c5565b919050565b6000604051905090565b600067ffffffffffffffff821115613098576130976133fd565b5b6130a18261342c565b9050602081019050919050565b600067ffffffffffffffff8211156130c9576130c86133fd565b5b6130d28261342c565b9050602081019050919050565b600081519050919050565b600081519050919050565b600082825260208201905092915050565b600082825260208201905092915050565b600081905092915050565b600061312d82613247565b915061313883613247565b9250827fffffffffffffffffffffffffffffffffffffffffffffffffffffffffffffffff0382111561316d5761316c613370565b5b828201905092915050565b600061318382613247565b915061318e83613247565b92508261319e5761319d61339f565b5b828204905092915050565b60006131b482613247565b91506131bf83613247565b9250828210156131d2576131d1613370565b5b828203905092915050565b60006131e882613227565b9050919050565b60008115159050919050565b60007fffffffff0000000000000000000000000000000000000000000000000000000082169050919050565b600073ffffffffffffffffffffffffffffffffffffffff82169050919050565b6000819050919050565b82818337600083830152505050565b60005b8381101561327e578082015181840152602081019050613263565b8381111561328d576000848401525b50505050565b600060028204905060018216806132ab57607f821691505b602082108114156132bf576132be6133ce565b5b50919050565b6132ce8261342c565b810181811067ffffffffffffffff821117156132ed576132ec6133fd565b5b80604052505050565b600061330182613247565b91507fffffffffffffffffffffffffffffffffffffffffffffffffffffffffffffffff82141561333457613333613370565b5b600182019050919050565b600061334a82613247565b915061335583613247565b9250826133655761336461339f565b5b828206905092915050565b7f4e487b7100000000000000000000000000000000000000000000000000000000600052601160045260246000fd5b7f4e487b7100000000000000000000000000000000000000000000000000000000600052601260045260246000fd5b7f4e487b7100000000000000000000000000000000000000000000000000000000600052602260045260246000fd5b7f4e487b7100000000000000000000000000000000000000000000000000000000600052604160045260246000fd5b6000601f19601f8301169050919050565b7f5061757361626c653a206e6f7420706175736564000000000000000000000000600082015250565b7f4552433732313a207472616e7366657220746f206e6f6e20455243373231526560008201527f63656976657220696d706c656d656e7465720000000000000000000000000000602082015250565b7f4f776e61626c653a206e6577206f776e657220697320746865207a65726f206160008201527f6464726573730000000000000000000000000000000000000000000000000000602082015250565b7f4552433732313a207472616e736665722066726f6d20696e636f72726563742060008201527f6f776e6572000000000000000000000000000000000000000000000000000000602082015250565b7f4552433732313a20746f6b656e20616c7265616479206d696e74656400000000600082015250565b7f4552433732313a207472616e7366657220746f20746865207a65726f2061646460008201527f7265737300000000000000000000000000000000000000000000000000000000602082015250565b7f4e465420616c7265616479206d696e7465640000000000000000000000000000600082015250565b7f4552433732313a20617070726f766520746f2063616c6c657200000000000000600082015250565b7f4552433732313a206f70657261746f7220717565727920666f72206e6f6e657860008201527f697374656e7420746f6b656e0000000000000000000000000000000000000000602082015250565b7f5061757361626c653a2070617573656400000000000000000000000000000000600082015250565b7f4552433732313a20617070726f76652063616c6c6572206973206e6f74206f7760008201527f6e6572206e6f7220617070726f76656420666f7220616c6c0000000000000000602082015250565b7f4552433732313a2062616c616e636520717565727920666f7220746865207a6560008201527f726f206164647265737300000000000000000000000000000000000000000000602082015250565b7f4552433732313a206f776e657220717565727920666f72206e6f6e657869737460008201527f656e7420746f6b656e0000000000000000000000000000000000000000000000602082015250565b7f45524337323155524953746f726167653a2055524920736574206f66206e6f6e60008201527f6578697374656e7420746f6b656e000000000000000000000000000000000000602082015250565b7f416464726573732063616e20616c7265616479206d696e740000000000000000600082015250565b7f4552433732313a206d696e7420746f20746865207a65726f2061646472657373600082015250565b7f45524337323155524953746f726167653a2055524920717565727920666f722060008201527f6e6f6e6578697374656e7420746f6b656e000000000000000000000000000000602082015250565b7f4552433732313a20617070726f76656420717565727920666f72206e6f6e657860008201527f697374656e7420746f6b656e0000000000000000000000000000000000000000602082015250565b7f4f776e61626c653a2063616c6c6572206973206e6f7420746865206f776e6572600082015250565b7f4552433732314d657461646174613a2055524920717565727920666f72206e6f60008201527f6e6578697374656e7420746f6b656e0000000000000000000000000000000000602082015250565b7f4552433732313a20617070726f76616c20746f2063757272656e74206f776e6560008201527f7200000000000000000000000000000000000000000000000000000000000000602082015250565b7f4552433732313a207472616e736665722063616c6c6572206973206e6f74206f60008201527f776e6572206e6f7220617070726f766564000000000000000000000000000000602082015250565b6139e0816131dd565b81146139eb57600080fd5b50565b6139f7816131ef565b8114613a0257600080fd5b50565b613a0e816131fb565b8114613a1957600080fd5b50565b613a2581613247565b8114613a3057600080fd5b5056fea26469706673582212207d68663217a3c3542816e570eebaf41a57b9bd3d00be92cf1ceb62f9b801ed4a64736f6c63430008040033",
  "linkReferences": {},
  "deployedLinkReferences": {}
}