{
  "_format": "hh-sol-artifact-1",
  "contractName": "CertificateFB333Builders",
  "sourceName": "contracts/CertificateFB333Builders.sol",
  "abi": [
    {
      "inputs": [],
      "stateMutability": "nonpayable",
      "type": "constructor"
    },
    {
      "anonymous": false,
      "inputs": [
        {
          "indexed": true,
          "internalType": "address",
          "name": "owner",
          "type": "address"
        },
        {
          "indexed": true,
          "internalType": "address",
          "name": "approved",
          "type": "address"
        },
        {
          "indexed": true,
          "internalType": "uint256",
          "name": "tokenId",
          "type": "uint256"
        }
      ],
      "name": "Approval",
      "type": "event"
    },
    {
      "anonymous": false,
      "inputs": [
        {
          "indexed": true,
          "internalType": "address",
          "name": "owner",
          "type": "address"
        },
        {
          "indexed": true,
          "internalType": "address",
          "name": "operator",
          "type": "address"
        },
        {
          "indexed": false,
          "internalType": "bool",
          "name": "approved",
          "type": "bool"
        }
      ],
      "name": "ApprovalForAll",
      "type": "event"
    },
    {
      "anonymous": false,
      "inputs": [
        {
          "indexed": true,
          "internalType": "address",
          "name": "previousOwner",
          "type": "address"
        },
        {
          "indexed": true,
          "internalType": "address",
          "name": "newOwner",
          "type": "address"
        }
      ],
      "name": "OwnershipTransferred",
      "type": "event"
    },
    {
      "anonymous": false,
      "inputs": [
        {
          "indexed": true,
          "internalType": "address",
          "name": "from",
          "type": "address"
        },
        {
          "indexed": true,
          "internalType": "address",
          "name": "to",
          "type": "address"
        },
        {
          "indexed": true,
          "internalType": "uint256",
          "name": "tokenId",
          "type": "uint256"
        }
      ],
      "name": "Transfer",
      "type": "event"
    },
    {
      "inputs": [
        {
          "internalType": "address",
          "name": "to",
          "type": "address"
        },
        {
          "internalType": "uint256",
          "name": "tokenId",
          "type": "uint256"
        }
      ],
      "name": "approve",
      "outputs": [],
      "stateMutability": "nonpayable",
      "type": "function"
    },
    {
      "inputs": [
        {
          "internalType": "address",
          "name": "owner",
          "type": "address"
        }
      ],
      "name": "balanceOf",
      "outputs": [
        {
          "internalType": "uint256",
          "name": "",
          "type": "uint256"
        }
      ],
      "stateMutability": "view",
      "type": "function"
    },
    {
      "inputs": [
        {
          "internalType": "uint256",
          "name": "tokenId",
          "type": "uint256"
        }
      ],
      "name": "burn",
      "outputs": [],
      "stateMutability": "nonpayable",
      "type": "function"
    },
    {
      "inputs": [
        {
          "internalType": "uint256",
          "name": "tokenId",
          "type": "uint256"
        }
      ],
      "name": "getApproved",
      "outputs": [
        {
          "internalType": "address",
          "name": "",
          "type": "address"
        }
      ],
      "stateMutability": "view",
      "type": "function"
    },
    {
      "inputs": [
        {
          "internalType": "address",
          "name": "owner",
          "type": "address"
        },
        {
          "internalType": "address",
          "name": "operator",
          "type": "address"
        }
      ],
      "name": "isApprovedForAll",
      "outputs": [
        {
          "internalType": "bool",
          "name": "",
          "type": "bool"
        }
      ],
      "stateMutability": "view",
      "type": "function"
    },
    {
      "inputs": [
        {
          "internalType": "string",
          "name": "uri",
          "type": "string"
        }
      ],
      "name": "mint",
      "outputs": [],
      "stateMutability": "nonpayable",
      "type": "function"
    },
    {
      "inputs": [],
      "name": "name",
      "outputs": [
        {
          "internalType": "string",
          "name": "",
          "type": "string"
        }
      ],
      "stateMutability": "view",
      "type": "function"
    },
    {
      "inputs": [],
      "name": "owner",
      "outputs": [
        {
          "internalType": "address",
          "name": "",
          "type": "address"
        }
      ],
      "stateMutability": "view",
      "type": "function"
    },
    {
      "inputs": [
        {
          "internalType": "uint256",
          "name": "tokenId",
          "type": "uint256"
        }
      ],
      "name": "ownerOf",
      "outputs": [
        {
          "internalType": "address",
          "name": "",
          "type": "address"
        }
      ],
      "stateMutability": "view",
      "type": "function"
    },
    {
      "inputs": [],
      "name": "renounceOwnership",
      "outputs": [],
      "stateMutability": "nonpayable",
      "type": "function"
    },
    {
      "inputs": [
        {
          "internalType": "address",
          "name": "to",
          "type": "address"
        }
      ],
      "name": "resetBalances",
      "outputs": [],
      "stateMutability": "nonpayable",
      "type": "function"
    },
    {
      "inputs": [
        {
          "internalType": "address",
          "name": "from",
          "type": "address"
        },
        {
          "internalType": "address",
          "name": "to",
          "type": "address"
        },
        {
          "internalType": "uint256",
          "name": "tokenId",
          "type": "uint256"
        }
      ],
      "name": "safeTransferFrom",
      "outputs": [],
      "stateMutability": "nonpayable",
      "type": "function"
    },
    {
      "inputs": [
        {
          "internalType": "address",
          "name": "from",
          "type": "address"
        },
        {
          "internalType": "address",
          "name": "to",
          "type": "address"
        },
        {
          "internalType": "uint256",
          "name": "tokenId",
          "type": "uint256"
        },
        {
          "internalType": "bytes",
          "name": "_data",
          "type": "bytes"
        }
      ],
      "name": "safeTransferFrom",
      "outputs": [],
      "stateMutability": "nonpayable",
      "type": "function"
    },
    {
      "inputs": [
        {
          "internalType": "address",
          "name": "operator",
          "type": "address"
        },
        {
          "internalType": "bool",
          "name": "approved",
          "type": "bool"
        }
      ],
      "name": "setApprovalForAll",
      "outputs": [],
      "stateMutability": "nonpayable",
      "type": "function"
    },
    {
      "inputs": [
        {
          "internalType": "uint256",
          "name": "tokenId",
          "type": "uint256"
        },
        {
          "internalType": "string",
          "name": "uri",
          "type": "string"
        }
      ],
      "name": "setTokenURI",
      "outputs": [],
      "stateMutability": "nonpayable",
      "type": "function"
    },
    {
      "inputs": [
        {
          "internalType": "bytes4",
          "name": "interfaceId",
          "type": "bytes4"
        }
      ],
      "name": "supportsInterface",
      "outputs": [
        {
          "internalType": "bool",
          "name": "",
          "type": "bool"
        }
      ],
      "stateMutability": "view",
      "type": "function"
    },
    {
      "inputs": [],
      "name": "symbol",
      "outputs": [
        {
          "internalType": "string",
          "name": "",
          "type": "string"
        }
      ],
      "stateMutability": "view",
      "type": "function"
    },
    {
      "inputs": [
        {
          "internalType": "uint256",
          "name": "tokenId",
          "type": "uint256"
        }
      ],
      "name": "tokenURI",
      "outputs": [
        {
          "internalType": "string",
          "name": "",
          "type": "string"
        }
      ],
      "stateMutability": "view",
      "type": "function"
    },
    {
      "inputs": [
        {
          "internalType": "address",
          "name": "from",
          "type": "address"
        },
        {
          "internalType": "address",
          "name": "to",
          "type": "address"
        },
        {
          "internalType": "uint256",
          "name": "tokenId",
          "type": "uint256"
        }
      ],
      "name": "transferFrom",
      "outputs": [],
      "stateMutability": "nonpayable",
      "type": "function"
    },
    {
      "inputs": [
        {
          "internalType": "address",
          "name": "newOwner",
          "type": "address"
        }
      ],
      "name": "transferOwnership",
      "outputs": [],
      "stateMutability": "nonpayable",
      "type": "function"
    }
  ],
  "bytecode": "0x60806040523480156200001157600080fd5b506040518060400160405280600c81526020017f3333332e4275696c6465727300000000000000000000000000000000000000008152506040518060400160405280600481526020017f3333334200000000000000000000000000000000000000000000000000000000815250816000908051906020019062000096929190620001a6565b508060019080519060200190620000af929190620001a6565b505050620000d2620000c6620000d860201b60201c565b620000e060201b60201c565b620002bb565b600033905090565b6000600760009054906101000a900473ffffffffffffffffffffffffffffffffffffffff16905081600760006101000a81548173ffffffffffffffffffffffffffffffffffffffff021916908373ffffffffffffffffffffffffffffffffffffffff1602179055508173ffffffffffffffffffffffffffffffffffffffff168173ffffffffffffffffffffffffffffffffffffffff167f8be0079c531659141344cd1fd0a4f28419497f9722a3daafe3b4186f6b6457e060405160405180910390a35050565b828054620001b49062000256565b90600052602060002090601f016020900481019282620001d8576000855562000224565b82601f10620001f357805160ff191683800117855562000224565b8280016001018555821562000224579182015b828111156200022357825182559160200191906001019062000206565b5b50905062000233919062000237565b5090565b5b808211156200025257600081600090555060010162000238565b5090565b600060028204905060018216806200026f57607f821691505b602082108114156200028657620002856200028c565b5b50919050565b7f4e487b7100000000000000000000000000000000000000000000000000000000600052602260045260246000fd5b61368e80620002cb6000396000f3fe608060405234801561001057600080fd5b506004361061012c5760003560e01c806370a08231116100ad578063b88d4fde11610071578063b88d4fde14610319578063c87b56dd14610335578063d85d3d2714610365578063e985e9c514610381578063f2fde38b146103b15761012c565b806370a0823114610287578063715018a6146102b75780638da5cb5b146102c157806395d89b41146102df578063a22cb465146102fd5761012c565b80631bdbee0a116100f45780631bdbee0a146101e757806323b872dd1461020357806342842e0e1461021f57806342966c681461023b5780636352211e146102575761012c565b806301ffc9a71461013157806306fdde0314610161578063081812fc1461017f578063095ea7b3146101af578063162094c4146101cb575b600080fd5b61014b600480360381019061014691906124d0565b6103cd565b60405161015891906129f7565b60405180910390f35b6101696104af565b6040516101769190612a12565b60405180910390f35b61019960048036038101906101949190612563565b610541565b6040516101a69190612990565b60405180910390f35b6101c960048036038101906101c49190612494565b6105c6565b005b6101e560048036038101906101e0919061258c565b6106de565b005b61020160048036038101906101fc9190612329565b610768565b005b61021d6004803603810190610218919061238e565b6108d2565b005b6102396004803603810190610234919061238e565b610932565b005b61025560048036038101906102509190612563565b610952565b005b610271600480360381019061026c9190612563565b6109da565b60405161027e9190612990565b60405180910390f35b6102a1600480360381019061029c9190612329565b610a8c565b6040516102ae9190612cb4565b60405180910390f35b6102bf610b44565b005b6102c9610bcc565b6040516102d69190612990565b60405180910390f35b6102e7610bf6565b6040516102f49190612a12565b60405180910390f35b61031760048036038101906103129190612458565b610c88565b005b610333600480360381019061032e91906123dd565b610c9e565b005b61034f600480360381019061034a9190612563565b610d00565b60405161035c9190612a12565b60405180910390f35b61037f600480360381019061037a9190612522565b610d12565b005b61039b60048036038101906103969190612352565b610e2e565b6040516103a891906129f7565b60405180910390f35b6103cb60048036038101906103c69190612329565b610ec2565b005b60007f80ac58cd000000000000000000000000000000000000000000000000000000007bffffffffffffffffffffffffffffffffffffffffffffffffffffffff1916827bffffffffffffffffffffffffffffffffffffffffffffffffffffffff1916148061049857507f5b5e139f000000000000000000000000000000000000000000000000000000007bffffffffffffffffffffffffffffffffffffffffffffffffffffffff1916827bffffffffffffffffffffffffffffffffffffffffffffffffffffffff1916145b806104a857506104a782610fba565b5b9050919050565b6060600080546104be90612f0a565b80601f01602080910402602001604051908101604052809291908181526020018280546104ea90612f0a565b80156105375780601f1061050c57610100808354040283529160200191610537565b820191906000526020600020905b81548152906001019060200180831161051a57829003601f168201915b5050505050905090565b600061054c82611024565b61058b576040517f08c379a000000000000000000000000000000000000000000000000000000000815260040161058290612c14565b60405180910390fd5b6004600083815260200190815260200160002060009054906101000a900473ffffffffffffffffffffffffffffffffffffffff169050919050565b60006105d1826109da565b90508073ffffffffffffffffffffffffffffffffffffffff168373ffffffffffffffffffffffffffffffffffffffff161415610642576040517f08c379a000000000000000000000000000000000000000000000000000000000815260040161063990612c74565b60405180910390fd5b8073ffffffffffffffffffffffffffffffffffffffff16610661611090565b73ffffffffffffffffffffffffffffffffffffffff161480610690575061068f8161068a611090565b610e2e565b5b6106cf576040517f08c379a00000000000000000000000000000000000000000000000000000000081526004016106c690612b34565b60405180910390fd5b6106d98383611098565b505050565b6106e6611090565b73ffffffffffffffffffffffffffffffffffffffff16610704610bcc565b73ffffffffffffffffffffffffffffffffffffffff161461075a576040517f08c379a000000000000000000000000000000000000000000000000000000000815260040161075190612c34565b60405180910390fd5b6107648282611151565b5050565b610770611090565b73ffffffffffffffffffffffffffffffffffffffff1661078e610bcc565b73ffffffffffffffffffffffffffffffffffffffff16146107e4576040517f08c379a00000000000000000000000000000000000000000000000000000000081526004016107db90612c34565b60405180910390fd5b60011515600960008373ffffffffffffffffffffffffffffffffffffffff1673ffffffffffffffffffffffffffffffffffffffff16815260200190815260200160002060009054906101000a900460ff16151514610877576040517f08c379a000000000000000000000000000000000000000000000000000000000815260040161086e90612bb4565b60405180910390fd5b6000600960008373ffffffffffffffffffffffffffffffffffffffff1673ffffffffffffffffffffffffffffffffffffffff16815260200190815260200160002060006101000a81548160ff02191690831515021790555050565b6108e36108dd611090565b826111c5565b610922576040517f08c379a000000000000000000000000000000000000000000000000000000000815260040161091990612c94565b60405180910390fd5b61092d8383836112a3565b505050565b61094d83838360405180602001604052806000815250610c9e565b505050565b61095a611090565b73ffffffffffffffffffffffffffffffffffffffff16610978610bcc565b73ffffffffffffffffffffffffffffffffffffffff16146109ce576040517f08c379a00000000000000000000000000000000000000000000000000000000081526004016109c590612c34565b60405180910390fd5b6109d78161150a565b50565b6000806002600084815260200190815260200160002060009054906101000a900473ffffffffffffffffffffffffffffffffffffffff169050600073ffffffffffffffffffffffffffffffffffffffff168173ffffffffffffffffffffffffffffffffffffffff161415610a83576040517f08c379a0000000000000000000000000000000000000000000000000000000008152600401610a7a90612b74565b60405180910390fd5b80915050919050565b60008073ffffffffffffffffffffffffffffffffffffffff168273ffffffffffffffffffffffffffffffffffffffff161415610afd576040517f08c379a0000000000000000000000000000000000000000000000000000000008152600401610af490612b54565b60405180910390fd5b600360008373ffffffffffffffffffffffffffffffffffffffff1673ffffffffffffffffffffffffffffffffffffffff168152602001908152602001600020549050919050565b610b4c611090565b73ffffffffffffffffffffffffffffffffffffffff16610b6a610bcc565b73ffffffffffffffffffffffffffffffffffffffff1614610bc0576040517f08c379a0000000000000000000000000000000000000000000000000000000008152600401610bb790612c34565b60405180910390fd5b610bca6000611516565b565b6000600760009054906101000a900473ffffffffffffffffffffffffffffffffffffffff16905090565b606060018054610c0590612f0a565b80601f0160208091040260200160405190810160405280929190818152602001828054610c3190612f0a565b8015610c7e5780601f10610c5357610100808354040283529160200191610c7e565b820191906000526020600020905b815481529060010190602001808311610c6157829003601f168201915b5050505050905090565b610c9a610c93611090565b83836115dc565b5050565b610caf610ca9611090565b836111c5565b610cee576040517f08c379a0000000000000000000000000000000000000000000000000000000008152600401610ce590612c94565b60405180910390fd5b610cfa84848484611749565b50505050565b6060610d0b826117a5565b9050919050565b60011515600960003373ffffffffffffffffffffffffffffffffffffffff1673ffffffffffffffffffffffffffffffffffffffff16815260200190815260200160002060009054906101000a900460ff1615151415610da6576040517f08c379a0000000000000000000000000000000000000000000000000000000008152600401610d9d90612ad4565b60405180910390fd5b6001600960003373ffffffffffffffffffffffffffffffffffffffff1673ffffffffffffffffffffffffffffffffffffffff16815260200190815260200160002060006101000a81548160ff0219169083151502179055506000610e0a60086118f7565b9050610e166008611905565b610e20338261191b565b610e2a8183611151565b5050565b6000600560008473ffffffffffffffffffffffffffffffffffffffff1673ffffffffffffffffffffffffffffffffffffffff16815260200190815260200160002060008373ffffffffffffffffffffffffffffffffffffffff1673ffffffffffffffffffffffffffffffffffffffff16815260200190815260200160002060009054906101000a900460ff16905092915050565b610eca611090565b73ffffffffffffffffffffffffffffffffffffffff16610ee8610bcc565b73ffffffffffffffffffffffffffffffffffffffff1614610f3e576040517f08c379a0000000000000000000000000000000000000000000000000000000008152600401610f3590612c34565b60405180910390fd5b600073ffffffffffffffffffffffffffffffffffffffff168173ffffffffffffffffffffffffffffffffffffffff161415610fae576040517f08c379a0000000000000000000000000000000000000000000000000000000008152600401610fa590612a54565b60405180910390fd5b610fb781611516565b50565b60007f01ffc9a7000000000000000000000000000000000000000000000000000000007bffffffffffffffffffffffffffffffffffffffffffffffffffffffff1916827bffffffffffffffffffffffffffffffffffffffffffffffffffffffff1916149050919050565b60008073ffffffffffffffffffffffffffffffffffffffff166002600084815260200190815260200160002060009054906101000a900473ffffffffffffffffffffffffffffffffffffffff1673ffffffffffffffffffffffffffffffffffffffff1614159050919050565b600033905090565b816004600083815260200190815260200160002060006101000a81548173ffffffffffffffffffffffffffffffffffffffff021916908373ffffffffffffffffffffffffffffffffffffffff160217905550808273ffffffffffffffffffffffffffffffffffffffff1661110b836109da565b73ffffffffffffffffffffffffffffffffffffffff167f8c5be1e5ebec7d5bd14f71427d1e84f3dd0314c0f7b2291e5b200ac8c7c3b92560405160405180910390a45050565b61115a82611024565b611199576040517f08c379a000000000000000000000000000000000000000000000000000000000815260040161119090612b94565b60405180910390fd5b806006600084815260200190815260200160002090805190602001906111c092919061210d565b505050565b60006111d082611024565b61120f576040517f08c379a000000000000000000000000000000000000000000000000000000000815260040161120690612b14565b60405180910390fd5b600061121a836109da565b90508073ffffffffffffffffffffffffffffffffffffffff168473ffffffffffffffffffffffffffffffffffffffff16148061125c575061125b8185610e2e565b5b8061129a57508373ffffffffffffffffffffffffffffffffffffffff1661128284610541565b73ffffffffffffffffffffffffffffffffffffffff16145b91505092915050565b8273ffffffffffffffffffffffffffffffffffffffff166112c3826109da565b73ffffffffffffffffffffffffffffffffffffffff1614611319576040517f08c379a000000000000000000000000000000000000000000000000000000000815260040161131090612a74565b60405180910390fd5b600073ffffffffffffffffffffffffffffffffffffffff168273ffffffffffffffffffffffffffffffffffffffff161415611389576040517f08c379a000000000000000000000000000000000000000000000000000000000815260040161138090612ab4565b60405180910390fd5b611394838383611939565b61139f600082611098565b6001600360008573ffffffffffffffffffffffffffffffffffffffff1673ffffffffffffffffffffffffffffffffffffffff16815260200190815260200160002060008282546113ef9190612e20565b925050819055506001600360008473ffffffffffffffffffffffffffffffffffffffff1673ffffffffffffffffffffffffffffffffffffffff16815260200190815260200160002060008282546114469190612d99565b92505081905550816002600083815260200190815260200160002060006101000a81548173ffffffffffffffffffffffffffffffffffffffff021916908373ffffffffffffffffffffffffffffffffffffffff160217905550808273ffffffffffffffffffffffffffffffffffffffff168473ffffffffffffffffffffffffffffffffffffffff167fddf252ad1be2c89b69c2b068fc378daa952ba7f163c4a11628f55a4df523b3ef60405160405180910390a461150583838361193e565b505050565b61151381611943565b50565b6000600760009054906101000a900473ffffffffffffffffffffffffffffffffffffffff16905081600760006101000a81548173ffffffffffffffffffffffffffffffffffffffff021916908373ffffffffffffffffffffffffffffffffffffffff1602179055508173ffffffffffffffffffffffffffffffffffffffff168173ffffffffffffffffffffffffffffffffffffffff167f8be0079c531659141344cd1fd0a4f28419497f9722a3daafe3b4186f6b6457e060405160405180910390a35050565b8173ffffffffffffffffffffffffffffffffffffffff168373ffffffffffffffffffffffffffffffffffffffff16141561164b576040517f08c379a000000000000000000000000000000000000000000000000000000000815260040161164290612af4565b60405180910390fd5b80600560008573ffffffffffffffffffffffffffffffffffffffff1673ffffffffffffffffffffffffffffffffffffffff16815260200190815260200160002060008473ffffffffffffffffffffffffffffffffffffffff1673ffffffffffffffffffffffffffffffffffffffff16815260200190815260200160002060006101000a81548160ff0219169083151502179055508173ffffffffffffffffffffffffffffffffffffffff168373ffffffffffffffffffffffffffffffffffffffff167f17307eab39ab6107e8899845ad3d59bd9653f200f220920489ca2b5937696c318360405161173c91906129f7565b60405180910390a3505050565b6117548484846112a3565b61176084848484611996565b61179f576040517f08c379a000000000000000000000000000000000000000000000000000000000815260040161179690612a34565b60405180910390fd5b50505050565b60606117b082611024565b6117ef576040517f08c379a00000000000000000000000000000000000000000000000000000000081526004016117e690612bf4565b60405180910390fd5b600060066000848152602001908152602001600020805461180f90612f0a565b80601f016020809104026020016040519081016040528092919081815260200182805461183b90612f0a565b80156118885780601f1061185d57610100808354040283529160200191611888565b820191906000526020600020905b81548152906001019060200180831161186b57829003601f168201915b505050505090506000611899611b2d565b90506000815114156118af5781925050506118f2565b6000825111156118e45780826040516020016118cc92919061296c565b604051602081830303815290604052925050506118f2565b6118ed84611b44565b925050505b919050565b600081600001549050919050565b6001816000016000828254019250508190555050565b611935828260405180602001604052806000815250611beb565b5050565b505050565b505050565b61194c81611c46565b600060066000838152602001908152602001600020805461196c90612f0a565b905014611993576006600082815260200190815260200160002060006119929190612193565b5b50565b60006119b78473ffffffffffffffffffffffffffffffffffffffff16611d63565b15611b20578373ffffffffffffffffffffffffffffffffffffffff1663150b7a026119e0611090565b8786866040518563ffffffff1660e01b8152600401611a0294939291906129ab565b602060405180830381600087803b158015611a1c57600080fd5b505af1925050508015611a4d57506040513d601f19601f82011682018060405250810190611a4a91906124f9565b60015b611ad0573d8060008114611a7d576040519150601f19603f3d011682016040523d82523d6000602084013e611a82565b606091505b50600081511415611ac8576040517f08c379a0000000000000000000000000000000000000000000000000000000008152600401611abf90612a34565b60405180910390fd5b805181602001fd5b63150b7a0260e01b7bffffffffffffffffffffffffffffffffffffffffffffffffffffffff1916817bffffffffffffffffffffffffffffffffffffffffffffffffffffffff191614915050611b25565b600190505b949350505050565b606060405180602001604052806000815250905090565b6060611b4f82611024565b611b8e576040517f08c379a0000000000000000000000000000000000000000000000000000000008152600401611b8590612c54565b60405180910390fd5b6000611b98611b2d565b90506000815111611bb85760405180602001604052806000815250611be3565b80611bc284611d86565b604051602001611bd392919061296c565b6040516020818303038152906040525b915050919050565b611bf58383611f33565b611c026000848484611996565b611c41576040517f08c379a0000000000000000000000000000000000000000000000000000000008152600401611c3890612a34565b60405180910390fd5b505050565b6000611c51826109da565b9050611c5f81600084611939565b611c6a600083611098565b6001600360008373ffffffffffffffffffffffffffffffffffffffff1673ffffffffffffffffffffffffffffffffffffffff1681526020019081526020016000206000828254611cba9190612e20565b925050819055506002600083815260200190815260200160002060006101000a81549073ffffffffffffffffffffffffffffffffffffffff021916905581600073ffffffffffffffffffffffffffffffffffffffff168273ffffffffffffffffffffffffffffffffffffffff167fddf252ad1be2c89b69c2b068fc378daa952ba7f163c4a11628f55a4df523b3ef60405160405180910390a4611d5f8160008461193e565b5050565b6000808273ffffffffffffffffffffffffffffffffffffffff163b119050919050565b60606000821415611dce576040518060400160405280600181526020017f30000000000000000000000000000000000000000000000000000000000000008152509050611f2e565b600082905060005b60008214611e00578080611de990612f6d565b915050600a82611df99190612def565b9150611dd6565b60008167ffffffffffffffff811115611e42577f4e487b7100000000000000000000000000000000000000000000000000000000600052604160045260246000fd5b6040519080825280601f01601f191660200182016040528015611e745781602001600182028036833780820191505090505b5090505b60008514611f2757600182611e8d9190612e20565b9150600a85611e9c9190612fb6565b6030611ea89190612d99565b60f81b818381518110611ee4577f4e487b7100000000000000000000000000000000000000000000000000000000600052603260045260246000fd5b60200101907effffffffffffffffffffffffffffffffffffffffffffffffffffffffffffff1916908160001a905350600a85611f209190612def565b9450611e78565b8093505050505b919050565b600073ffffffffffffffffffffffffffffffffffffffff168273ffffffffffffffffffffffffffffffffffffffff161415611fa3576040517f08c379a0000000000000000000000000000000000000000000000000000000008152600401611f9a90612bd4565b60405180910390fd5b611fac81611024565b15611fec576040517f08c379a0000000000000000000000000000000000000000000000000000000008152600401611fe390612a94565b60405180910390fd5b611ff860008383611939565b6001600360008473ffffffffffffffffffffffffffffffffffffffff1673ffffffffffffffffffffffffffffffffffffffff16815260200190815260200160002060008282546120489190612d99565b92505081905550816002600083815260200190815260200160002060006101000a81548173ffffffffffffffffffffffffffffffffffffffff021916908373ffffffffffffffffffffffffffffffffffffffff160217905550808273ffffffffffffffffffffffffffffffffffffffff16600073ffffffffffffffffffffffffffffffffffffffff167fddf252ad1be2c89b69c2b068fc378daa952ba7f163c4a11628f55a4df523b3ef60405160405180910390a46121096000838361193e565b5050565b82805461211990612f0a565b90600052602060002090601f01602090048101928261213b5760008555612182565b82601f1061215457805160ff1916838001178555612182565b82800160010185558215612182579182015b82811115612181578251825591602001919060010190612166565b5b50905061218f91906121d3565b5090565b50805461219f90612f0a565b6000825580601f106121b157506121d0565b601f0160209004906000526020600020908101906121cf91906121d3565b5b50565b5b808211156121ec5760008160009055506001016121d4565b5090565b60006122036121fe84612cf4565b612ccf565b90508281526020810184848401111561221b57600080fd5b612226848285612ec8565b509392505050565b600061224161223c84612d25565b612ccf565b90508281526020810184848401111561225957600080fd5b612264848285612ec8565b509392505050565b60008135905061227b816135fc565b92915050565b60008135905061229081613613565b92915050565b6000813590506122a58161362a565b92915050565b6000815190506122ba8161362a565b92915050565b600082601f8301126122d157600080fd5b81356122e18482602086016121f0565b91505092915050565b600082601f8301126122fb57600080fd5b813561230b84826020860161222e565b91505092915050565b60008135905061232381613641565b92915050565b60006020828403121561233b57600080fd5b60006123498482850161226c565b91505092915050565b6000806040838503121561236557600080fd5b60006123738582860161226c565b92505060206123848582860161226c565b9150509250929050565b6000806000606084860312156123a357600080fd5b60006123b18682870161226c565b93505060206123c28682870161226c565b92505060406123d386828701612314565b9150509250925092565b600080600080608085870312156123f357600080fd5b60006124018782880161226c565b94505060206124128782880161226c565b935050604061242387828801612314565b925050606085013567ffffffffffffffff81111561244057600080fd5b61244c878288016122c0565b91505092959194509250565b6000806040838503121561246b57600080fd5b60006124798582860161226c565b925050602061248a85828601612281565b9150509250929050565b600080604083850312156124a757600080fd5b60006124b58582860161226c565b92505060206124c685828601612314565b9150509250929050565b6000602082840312156124e257600080fd5b60006124f084828501612296565b91505092915050565b60006020828403121561250b57600080fd5b6000612519848285016122ab565b91505092915050565b60006020828403121561253457600080fd5b600082013567ffffffffffffffff81111561254e57600080fd5b61255a848285016122ea565b91505092915050565b60006020828403121561257557600080fd5b600061258384828501612314565b91505092915050565b6000806040838503121561259f57600080fd5b60006125ad85828601612314565b925050602083013567ffffffffffffffff8111156125ca57600080fd5b6125d6858286016122ea565b9150509250929050565b6125e981612e54565b82525050565b6125f881612e66565b82525050565b600061260982612d56565b6126138185612d6c565b9350612623818560208601612ed7565b61262c816130a3565b840191505092915050565b600061264282612d61565b61264c8185612d7d565b935061265c818560208601612ed7565b612665816130a3565b840191505092915050565b600061267b82612d61565b6126858185612d8e565b9350612695818560208601612ed7565b80840191505092915050565b60006126ae603283612d7d565b91506126b9826130b4565b604082019050919050565b60006126d1602683612d7d565b91506126dc82613103565b604082019050919050565b60006126f4602583612d7d565b91506126ff82613152565b604082019050919050565b6000612717601c83612d7d565b9150612722826131a1565b602082019050919050565b600061273a602483612d7d565b9150612745826131ca565b604082019050919050565b600061275d601283612d7d565b915061276882613219565b602082019050919050565b6000612780601983612d7d565b915061278b82613242565b602082019050919050565b60006127a3602c83612d7d565b91506127ae8261326b565b604082019050919050565b60006127c6603883612d7d565b91506127d1826132ba565b604082019050919050565b60006127e9602a83612d7d565b91506127f482613309565b604082019050919050565b600061280c602983612d7d565b915061281782613358565b604082019050919050565b600061282f602e83612d7d565b915061283a826133a7565b604082019050919050565b6000612852601883612d7d565b915061285d826133f6565b602082019050919050565b6000612875602083612d7d565b91506128808261341f565b602082019050919050565b6000612898603183612d7d565b91506128a382613448565b604082019050919050565b60006128bb602c83612d7d565b91506128c682613497565b604082019050919050565b60006128de602083612d7d565b91506128e9826134e6565b602082019050919050565b6000612901602f83612d7d565b915061290c8261350f565b604082019050919050565b6000612924602183612d7d565b915061292f8261355e565b604082019050919050565b6000612947603183612d7d565b9150612952826135ad565b604082019050919050565b61296681612ebe565b82525050565b60006129788285612670565b91506129848284612670565b91508190509392505050565b60006020820190506129a560008301846125e0565b92915050565b60006080820190506129c060008301876125e0565b6129cd60208301866125e0565b6129da604083018561295d565b81810360608301526129ec81846125fe565b905095945050505050565b6000602082019050612a0c60008301846125ef565b92915050565b60006020820190508181036000830152612a2c8184612637565b905092915050565b60006020820190508181036000830152612a4d816126a1565b9050919050565b60006020820190508181036000830152612a6d816126c4565b9050919050565b60006020820190508181036000830152612a8d816126e7565b9050919050565b60006020820190508181036000830152612aad8161270a565b9050919050565b60006020820190508181036000830152612acd8161272d565b9050919050565b60006020820190508181036000830152612aed81612750565b9050919050565b60006020820190508181036000830152612b0d81612773565b9050919050565b60006020820190508181036000830152612b2d81612796565b9050919050565b60006020820190508181036000830152612b4d816127b9565b9050919050565b60006020820190508181036000830152612b6d816127dc565b9050919050565b60006020820190508181036000830152612b8d816127ff565b9050919050565b60006020820190508181036000830152612bad81612822565b9050919050565b60006020820190508181036000830152612bcd81612845565b9050919050565b60006020820190508181036000830152612bed81612868565b9050919050565b60006020820190508181036000830152612c0d8161288b565b9050919050565b60006020820190508181036000830152612c2d816128ae565b9050919050565b60006020820190508181036000830152612c4d816128d1565b9050919050565b60006020820190508181036000830152612c6d816128f4565b9050919050565b60006020820190508181036000830152612c8d81612917565b9050919050565b60006020820190508181036000830152612cad8161293a565b9050919050565b6000602082019050612cc9600083018461295d565b92915050565b6000612cd9612cea565b9050612ce58282612f3c565b919050565b6000604051905090565b600067ffffffffffffffff821115612d0f57612d0e613074565b5b612d18826130a3565b9050602081019050919050565b600067ffffffffffffffff821115612d4057612d3f613074565b5b612d49826130a3565b9050602081019050919050565b600081519050919050565b600081519050919050565b600082825260208201905092915050565b600082825260208201905092915050565b600081905092915050565b6000612da482612ebe565b9150612daf83612ebe565b9250827fffffffffffffffffffffffffffffffffffffffffffffffffffffffffffffffff03821115612de457612de3612fe7565b5b828201905092915050565b6000612dfa82612ebe565b9150612e0583612ebe565b925082612e1557612e14613016565b5b828204905092915050565b6000612e2b82612ebe565b9150612e3683612ebe565b925082821015612e4957612e48612fe7565b5b828203905092915050565b6000612e5f82612e9e565b9050919050565b60008115159050919050565b60007fffffffff0000000000000000000000000000000000000000000000000000000082169050919050565b600073ffffffffffffffffffffffffffffffffffffffff82169050919050565b6000819050919050565b82818337600083830152505050565b60005b83811015612ef5578082015181840152602081019050612eda565b83811115612f04576000848401525b50505050565b60006002820490506001821680612f2257607f821691505b60208210811415612f3657612f35613045565b5b50919050565b612f45826130a3565b810181811067ffffffffffffffff82111715612f6457612f63613074565b5b80604052505050565b6000612f7882612ebe565b91507fffffffffffffffffffffffffffffffffffffffffffffffffffffffffffffffff821415612fab57612faa612fe7565b5b600182019050919050565b6000612fc182612ebe565b9150612fcc83612ebe565b925082612fdc57612fdb613016565b5b828206905092915050565b7f4e487b7100000000000000000000000000000000000000000000000000000000600052601160045260246000fd5b7f4e487b7100000000000000000000000000000000000000000000000000000000600052601260045260246000fd5b7f4e487b7100000000000000000000000000000000000000000000000000000000600052602260045260246000fd5b7f4e487b7100000000000000000000000000000000000000000000000000000000600052604160045260246000fd5b6000601f19601f8301169050919050565b7f4552433732313a207472616e7366657220746f206e6f6e20455243373231526560008201527f63656976657220696d706c656d656e7465720000000000000000000000000000602082015250565b7f4f776e61626c653a206e6577206f776e657220697320746865207a65726f206160008201527f6464726573730000000000000000000000000000000000000000000000000000602082015250565b7f4552433732313a207472616e736665722066726f6d20696e636f72726563742060008201527f6f776e6572000000000000000000000000000000000000000000000000000000602082015250565b7f4552433732313a20746f6b656e20616c7265616479206d696e74656400000000600082015250565b7f4552433732313a207472616e7366657220746f20746865207a65726f2061646460008201527f7265737300000000000000000000000000000000000000000000000000000000602082015250565b7f4e465420616c7265616479206d696e7465640000000000000000000000000000600082015250565b7f4552433732313a20617070726f766520746f2063616c6c657200000000000000600082015250565b7f4552433732313a206f70657261746f7220717565727920666f72206e6f6e657860008201527f697374656e7420746f6b656e0000000000000000000000000000000000000000602082015250565b7f4552433732313a20617070726f76652063616c6c6572206973206e6f74206f7760008201527f6e6572206e6f7220617070726f76656420666f7220616c6c0000000000000000602082015250565b7f4552433732313a2062616c616e636520717565727920666f7220746865207a6560008201527f726f206164647265737300000000000000000000000000000000000000000000602082015250565b7f4552433732313a206f776e657220717565727920666f72206e6f6e657869737460008201527f656e7420746f6b656e0000000000000000000000000000000000000000000000602082015250565b7f45524337323155524953746f726167653a2055524920736574206f66206e6f6e60008201527f6578697374656e7420746f6b656e000000000000000000000000000000000000602082015250565b7f416464726573732063616e20616c7265616479206d696e740000000000000000600082015250565b7f4552433732313a206d696e7420746f20746865207a65726f2061646472657373600082015250565b7f45524337323155524953746f726167653a2055524920717565727920666f722060008201527f6e6f6e6578697374656e7420746f6b656e000000000000000000000000000000602082015250565b7f4552433732313a20617070726f76656420717565727920666f72206e6f6e657860008201527f697374656e7420746f6b656e0000000000000000000000000000000000000000602082015250565b7f4f776e61626c653a2063616c6c6572206973206e6f7420746865206f776e6572600082015250565b7f4552433732314d657461646174613a2055524920717565727920666f72206e6f60008201527f6e6578697374656e7420746f6b656e0000000000000000000000000000000000602082015250565b7f4552433732313a20617070726f76616c20746f2063757272656e74206f776e6560008201527f7200000000000000000000000000000000000000000000000000000000000000602082015250565b7f4552433732313a207472616e736665722063616c6c6572206973206e6f74206f60008201527f776e6572206e6f7220617070726f766564000000000000000000000000000000602082015250565b61360581612e54565b811461361057600080fd5b50565b61361c81612e66565b811461362757600080fd5b50565b61363381612e72565b811461363e57600080fd5b50565b61364a81612ebe565b811461365557600080fd5b5056fea26469706673582212209998b3a8b464ad4de68cc20a77e095ce884e21760f10427457c69462d2fefe4864736f6c63430008040033",
  "linkReferences": {},
  "deployedLinkReferences": {}
}