{
  "_format": "hh-sol-artifact-1",
  "contractName": "CertificateFB333Builders",
  "sourceName": "contracts/CertificateFB333Builders.sol",
  "abi": [
    {
      "inputs": [],
      "stateMutability": "nonpayable",
      "type": "constructor"
    },
    {
      "anonymous": false,
      "inputs": [
        {
          "indexed": true,
          "internalType": "address",
          "name": "owner",
          "type": "address"
        },
        {
          "indexed": true,
          "internalType": "address",
          "name": "approved",
          "type": "address"
        },
        {
          "indexed": true,
          "internalType": "uint256",
          "name": "tokenId",
          "type": "uint256"
        }
      ],
      "name": "Approval",
      "type": "event"
    },
    {
      "anonymous": false,
      "inputs": [
        {
          "indexed": true,
          "internalType": "address",
          "name": "owner",
          "type": "address"
        },
        {
          "indexed": true,
          "internalType": "address",
          "name": "operator",
          "type": "address"
        },
        {
          "indexed": false,
          "internalType": "bool",
          "name": "approved",
          "type": "bool"
        }
      ],
      "name": "ApprovalForAll",
      "type": "event"
    },
    {
      "anonymous": false,
      "inputs": [
        {
          "indexed": true,
          "internalType": "address",
          "name": "previousOwner",
          "type": "address"
        },
        {
          "indexed": true,
          "internalType": "address",
          "name": "newOwner",
          "type": "address"
        }
      ],
      "name": "OwnershipTransferred",
      "type": "event"
    },
    {
      "anonymous": false,
      "inputs": [
        {
          "indexed": false,
          "internalType": "address",
          "name": "account",
          "type": "address"
        }
      ],
      "name": "Paused",
      "type": "event"
    },
    {
      "anonymous": false,
      "inputs": [
        {
          "indexed": true,
          "internalType": "address",
          "name": "from",
          "type": "address"
        },
        {
          "indexed": true,
          "internalType": "address",
          "name": "to",
          "type": "address"
        },
        {
          "indexed": true,
          "internalType": "uint256",
          "name": "tokenId",
          "type": "uint256"
        }
      ],
      "name": "Transfer",
      "type": "event"
    },
    {
      "anonymous": false,
      "inputs": [
        {
          "indexed": false,
          "internalType": "address",
          "name": "account",
          "type": "address"
        }
      ],
      "name": "Unpaused",
      "type": "event"
    },
    {
      "inputs": [
        {
          "internalType": "address",
          "name": "to",
          "type": "address"
        },
        {
          "internalType": "uint256",
          "name": "tokenId",
          "type": "uint256"
        }
      ],
      "name": "approve",
      "outputs": [],
      "stateMutability": "nonpayable",
      "type": "function"
    },
    {
      "inputs": [
        {
          "internalType": "address",
          "name": "owner",
          "type": "address"
        }
      ],
      "name": "balanceOf",
      "outputs": [
        {
          "internalType": "uint256",
          "name": "",
          "type": "uint256"
        }
      ],
      "stateMutability": "view",
      "type": "function"
    },
    {
      "inputs": [
        {
          "internalType": "uint256",
          "name": "tokenId",
          "type": "uint256"
        }
      ],
      "name": "getApproved",
      "outputs": [
        {
          "internalType": "address",
          "name": "",
          "type": "address"
        }
      ],
      "stateMutability": "view",
      "type": "function"
    },
    {
      "inputs": [
        {
          "internalType": "address",
          "name": "owner",
          "type": "address"
        },
        {
          "internalType": "address",
          "name": "operator",
          "type": "address"
        }
      ],
      "name": "isApprovedForAll",
      "outputs": [
        {
          "internalType": "bool",
          "name": "",
          "type": "bool"
        }
      ],
      "stateMutability": "view",
      "type": "function"
    },
    {
      "inputs": [],
      "name": "name",
      "outputs": [
        {
          "internalType": "string",
          "name": "",
          "type": "string"
        }
      ],
      "stateMutability": "view",
      "type": "function"
    },
    {
      "inputs": [],
      "name": "owner",
      "outputs": [
        {
          "internalType": "address",
          "name": "",
          "type": "address"
        }
      ],
      "stateMutability": "view",
      "type": "function"
    },
    {
      "inputs": [
        {
          "internalType": "uint256",
          "name": "tokenId",
          "type": "uint256"
        }
      ],
      "name": "ownerOf",
      "outputs": [
        {
          "internalType": "address",
          "name": "",
          "type": "address"
        }
      ],
      "stateMutability": "view",
      "type": "function"
    },
    {
      "inputs": [],
      "name": "pause",
      "outputs": [],
      "stateMutability": "nonpayable",
      "type": "function"
    },
    {
      "inputs": [],
      "name": "paused",
      "outputs": [
        {
          "internalType": "bool",
          "name": "",
          "type": "bool"
        }
      ],
      "stateMutability": "view",
      "type": "function"
    },
    {
      "inputs": [],
      "name": "renounceOwnership",
      "outputs": [],
      "stateMutability": "nonpayable",
      "type": "function"
    },
    {
      "inputs": [
        {
          "internalType": "address",
          "name": "to",
          "type": "address"
        }
      ],
      "name": "resetBalances",
      "outputs": [],
      "stateMutability": "nonpayable",
      "type": "function"
    },
    {
      "inputs": [
        {
          "internalType": "string",
          "name": "uri",
          "type": "string"
        },
        {
          "internalType": "address",
          "name": "user",
          "type": "address"
        }
      ],
      "name": "safeMint",
      "outputs": [],
      "stateMutability": "nonpayable",
      "type": "function"
    },
    {
      "inputs": [
        {
          "internalType": "address",
          "name": "from",
          "type": "address"
        },
        {
          "internalType": "address",
          "name": "to",
          "type": "address"
        },
        {
          "internalType": "uint256",
          "name": "tokenId",
          "type": "uint256"
        }
      ],
      "name": "safeTransferFrom",
      "outputs": [],
      "stateMutability": "nonpayable",
      "type": "function"
    },
    {
      "inputs": [
        {
          "internalType": "address",
          "name": "from",
          "type": "address"
        },
        {
          "internalType": "address",
          "name": "to",
          "type": "address"
        },
        {
          "internalType": "uint256",
          "name": "tokenId",
          "type": "uint256"
        },
        {
          "internalType": "bytes",
          "name": "_data",
          "type": "bytes"
        }
      ],
      "name": "safeTransferFrom",
      "outputs": [],
      "stateMutability": "nonpayable",
      "type": "function"
    },
    {
      "inputs": [
        {
          "internalType": "address",
          "name": "operator",
          "type": "address"
        },
        {
          "internalType": "bool",
          "name": "approved",
          "type": "bool"
        }
      ],
      "name": "setApprovalForAll",
      "outputs": [],
      "stateMutability": "nonpayable",
      "type": "function"
    },
    {
      "inputs": [
        {
          "internalType": "uint256",
          "name": "tokenId",
          "type": "uint256"
        },
        {
          "internalType": "string",
          "name": "uri",
          "type": "string"
        }
      ],
      "name": "setTokenURI",
      "outputs": [],
      "stateMutability": "nonpayable",
      "type": "function"
    },
    {
      "inputs": [
        {
          "internalType": "bytes4",
          "name": "interfaceId",
          "type": "bytes4"
        }
      ],
      "name": "supportsInterface",
      "outputs": [
        {
          "internalType": "bool",
          "name": "",
          "type": "bool"
        }
      ],
      "stateMutability": "view",
      "type": "function"
    },
    {
      "inputs": [],
      "name": "symbol",
      "outputs": [
        {
          "internalType": "string",
          "name": "",
          "type": "string"
        }
      ],
      "stateMutability": "view",
      "type": "function"
    },
    {
      "inputs": [
        {
          "internalType": "uint256",
          "name": "tokenId",
          "type": "uint256"
        }
      ],
      "name": "tokenURI",
      "outputs": [
        {
          "internalType": "string",
          "name": "",
          "type": "string"
        }
      ],
      "stateMutability": "view",
      "type": "function"
    },
    {
      "inputs": [
        {
          "internalType": "address",
          "name": "from",
          "type": "address"
        },
        {
          "internalType": "address",
          "name": "to",
          "type": "address"
        },
        {
          "internalType": "uint256",
          "name": "tokenId",
          "type": "uint256"
        }
      ],
      "name": "transferFrom",
      "outputs": [],
      "stateMutability": "nonpayable",
      "type": "function"
    },
    {
      "inputs": [
        {
          "internalType": "address",
          "name": "newOwner",
          "type": "address"
        }
      ],
      "name": "transferOwnership",
      "outputs": [],
      "stateMutability": "nonpayable",
      "type": "function"
    },
    {
      "inputs": [],
      "name": "unpause",
      "outputs": [],
      "stateMutability": "nonpayable",
      "type": "function"
    }
  ],
  "bytecode": "0x60806040523480156200001157600080fd5b506040518060400160405280600e81526020017f3333332e4275696c6465727343310000000000000000000000000000000000008152506040518060400160405280600681526020017f3333334243310000000000000000000000000000000000000000000000000000815250816000908051906020019062000096929190620001a6565b508060019080519060200190620000af929190620001a6565b505050620000d2620000c6620000d860201b60201c565b620000e060201b60201c565b620002bb565b600033905090565b6000600760009054906101000a900473ffffffffffffffffffffffffffffffffffffffff16905081600760006101000a81548173ffffffffffffffffffffffffffffffffffffffff021916908373ffffffffffffffffffffffffffffffffffffffff1602179055508173ffffffffffffffffffffffffffffffffffffffff168173ffffffffffffffffffffffffffffffffffffffff167f8be0079c531659141344cd1fd0a4f28419497f9722a3daafe3b4186f6b6457e060405160405180910390a35050565b828054620001b49062000256565b90600052602060002090601f016020900481019282620001d8576000855562000224565b82601f10620001f357805160ff191683800117855562000224565b8280016001018555821562000224579182015b828111156200022357825182559160200191906001019062000206565b5b50905062000233919062000237565b5090565b5b808211156200025257600081600090555060010162000238565b5090565b600060028204905060018216806200026f57607f821691505b602082108114156200028657620002856200028c565b5b50919050565b7f4e487b7100000000000000000000000000000000000000000000000000000000600052602260045260246000fd5b6134b380620002cb6000396000f3fe608060405234801561001057600080fd5b50600436106101215760003560e01c806370a08231116100ad578063b88d4fde11610071578063b88d4fde146102f2578063c6f057711461030e578063c87b56dd1461032a578063e985e9c51461035a578063f2fde38b1461038a57610121565b806370a0823114610260578063715018a6146102905780638da5cb5b1461029a57806395d89b41146102b8578063a22cb465146102d657610121565b8063162094c4116100f4578063162094c4146101c05780631bdbee0a146101dc57806323b872dd146101f857806342842e0e146102145780636352211e1461023057610121565b806301ffc9a71461012657806306fdde0314610156578063081812fc14610174578063095ea7b3146101a4575b600080fd5b610140600480360381019061013b91906122e2565b6103a6565b60405161014d919061281c565b60405180910390f35b61015e610488565b60405161016b9190612837565b60405180910390f35b61018e60048036038101906101899190612388565b61051a565b60405161019b91906127b5565b60405180910390f35b6101be60048036038101906101b991906122a6565b61059f565b005b6101da60048036038101906101d591906123b1565b6106b7565b005b6101f660048036038101906101f1919061213b565b610741565b005b610212600480360381019061020d91906121a0565b6108ab565b005b61022e600480360381019061022991906121a0565b61090b565b005b61024a60048036038101906102459190612388565b61092b565b60405161025791906127b5565b60405180910390f35b61027a6004803603810190610275919061213b565b6109dd565b6040516102879190612ad9565b60405180910390f35b610298610a95565b005b6102a2610b1d565b6040516102af91906127b5565b60405180910390f35b6102c0610b47565b6040516102cd9190612837565b60405180910390f35b6102f060048036038101906102eb919061226a565b610bd9565b005b61030c600480360381019061030791906121ef565b610bef565b005b61032860048036038101906103239190612334565b610c51565b005b610344600480360381019061033f9190612388565b610dea565b6040516103519190612837565b60405180910390f35b610374600480360381019061036f9190612164565b610dfc565b604051610381919061281c565b60405180910390f35b6103a4600480360381019061039f919061213b565b610e90565b005b60007f80ac58cd000000000000000000000000000000000000000000000000000000007bffffffffffffffffffffffffffffffffffffffffffffffffffffffff1916827bffffffffffffffffffffffffffffffffffffffffffffffffffffffff1916148061047157507f5b5e139f000000000000000000000000000000000000000000000000000000007bffffffffffffffffffffffffffffffffffffffffffffffffffffffff1916827bffffffffffffffffffffffffffffffffffffffffffffffffffffffff1916145b80610481575061048082610f88565b5b9050919050565b60606000805461049790612d2f565b80601f01602080910402602001604051908101604052809291908181526020018280546104c390612d2f565b80156105105780601f106104e557610100808354040283529160200191610510565b820191906000526020600020905b8154815290600101906020018083116104f357829003601f168201915b5050505050905090565b600061052582610ff2565b610564576040517f08c379a000000000000000000000000000000000000000000000000000000000815260040161055b90612a39565b60405180910390fd5b6004600083815260200190815260200160002060009054906101000a900473ffffffffffffffffffffffffffffffffffffffff169050919050565b60006105aa8261092b565b90508073ffffffffffffffffffffffffffffffffffffffff168373ffffffffffffffffffffffffffffffffffffffff16141561061b576040517f08c379a000000000000000000000000000000000000000000000000000000000815260040161061290612a99565b60405180910390fd5b8073ffffffffffffffffffffffffffffffffffffffff1661063a61105e565b73ffffffffffffffffffffffffffffffffffffffff16148061066957506106688161066361105e565b610dfc565b5b6106a8576040517f08c379a000000000000000000000000000000000000000000000000000000000815260040161069f90612959565b60405180910390fd5b6106b28383611066565b505050565b6106bf61105e565b73ffffffffffffffffffffffffffffffffffffffff166106dd610b1d565b73ffffffffffffffffffffffffffffffffffffffff1614610733576040517f08c379a000000000000000000000000000000000000000000000000000000000815260040161072a90612a59565b60405180910390fd5b61073d828261111f565b5050565b61074961105e565b73ffffffffffffffffffffffffffffffffffffffff16610767610b1d565b73ffffffffffffffffffffffffffffffffffffffff16146107bd576040517f08c379a00000000000000000000000000000000000000000000000000000000081526004016107b490612a59565b60405180910390fd5b60011515600960008373ffffffffffffffffffffffffffffffffffffffff1673ffffffffffffffffffffffffffffffffffffffff16815260200190815260200160002060009054906101000a900460ff16151514610850576040517f08c379a0000000000000000000000000000000000000000000000000000000008152600401610847906129d9565b60405180910390fd5b6000600960008373ffffffffffffffffffffffffffffffffffffffff1673ffffffffffffffffffffffffffffffffffffffff16815260200190815260200160002060006101000a81548160ff02191690831515021790555050565b6108bc6108b661105e565b82611193565b6108fb576040517f08c379a00000000000000000000000000000000000000000000000000000000081526004016108f290612ab9565b60405180910390fd5b610906838383611271565b505050565b61092683838360405180602001604052806000815250610bef565b505050565b6000806002600084815260200190815260200160002060009054906101000a900473ffffffffffffffffffffffffffffffffffffffff169050600073ffffffffffffffffffffffffffffffffffffffff168173ffffffffffffffffffffffffffffffffffffffff1614156109d4576040517f08c379a00000000000000000000000000000000000000000000000000000000081526004016109cb90612999565b60405180910390fd5b80915050919050565b60008073ffffffffffffffffffffffffffffffffffffffff168273ffffffffffffffffffffffffffffffffffffffff161415610a4e576040517f08c379a0000000000000000000000000000000000000000000000000000000008152600401610a4590612979565b60405180910390fd5b600360008373ffffffffffffffffffffffffffffffffffffffff1673ffffffffffffffffffffffffffffffffffffffff168152602001908152602001600020549050919050565b610a9d61105e565b73ffffffffffffffffffffffffffffffffffffffff16610abb610b1d565b73ffffffffffffffffffffffffffffffffffffffff1614610b11576040517f08c379a0000000000000000000000000000000000000000000000000000000008152600401610b0890612a59565b60405180910390fd5b610b1b60006114d8565b565b6000600760009054906101000a900473ffffffffffffffffffffffffffffffffffffffff16905090565b606060018054610b5690612d2f565b80601f0160208091040260200160405190810160405280929190818152602001828054610b8290612d2f565b8015610bcf5780601f10610ba457610100808354040283529160200191610bcf565b820191906000526020600020905b815481529060010190602001808311610bb257829003601f168201915b5050505050905090565b610beb610be461105e565b838361159e565b5050565b610c00610bfa61105e565b83611193565b610c3f576040517f08c379a0000000000000000000000000000000000000000000000000000000008152600401610c3690612ab9565b60405180910390fd5b610c4b8484848461170b565b50505050565b610c5961105e565b73ffffffffffffffffffffffffffffffffffffffff16610c77610b1d565b73ffffffffffffffffffffffffffffffffffffffff1614610ccd576040517f08c379a0000000000000000000000000000000000000000000000000000000008152600401610cc490612a59565b60405180910390fd5b60011515600960008373ffffffffffffffffffffffffffffffffffffffff1673ffffffffffffffffffffffffffffffffffffffff16815260200190815260200160002060009054906101000a900460ff1615151415610d61576040517f08c379a0000000000000000000000000000000000000000000000000000000008152600401610d58906128f9565b60405180910390fd5b6001600960008373ffffffffffffffffffffffffffffffffffffffff1673ffffffffffffffffffffffffffffffffffffffff16815260200190815260200160002060006101000a81548160ff0219169083151502179055506000610dc56008611767565b9050610dd16008611775565b610ddb828261178b565b610de5818461111f565b505050565b6060610df5826117a9565b9050919050565b6000600560008473ffffffffffffffffffffffffffffffffffffffff1673ffffffffffffffffffffffffffffffffffffffff16815260200190815260200160002060008373ffffffffffffffffffffffffffffffffffffffff1673ffffffffffffffffffffffffffffffffffffffff16815260200190815260200160002060009054906101000a900460ff16905092915050565b610e9861105e565b73ffffffffffffffffffffffffffffffffffffffff16610eb6610b1d565b73ffffffffffffffffffffffffffffffffffffffff1614610f0c576040517f08c379a0000000000000000000000000000000000000000000000000000000008152600401610f0390612a59565b60405180910390fd5b600073ffffffffffffffffffffffffffffffffffffffff168173ffffffffffffffffffffffffffffffffffffffff161415610f7c576040517f08c379a0000000000000000000000000000000000000000000000000000000008152600401610f7390612879565b60405180910390fd5b610f85816114d8565b50565b60007f01ffc9a7000000000000000000000000000000000000000000000000000000007bffffffffffffffffffffffffffffffffffffffffffffffffffffffff1916827bffffffffffffffffffffffffffffffffffffffffffffffffffffffff1916149050919050565b60008073ffffffffffffffffffffffffffffffffffffffff166002600084815260200190815260200160002060009054906101000a900473ffffffffffffffffffffffffffffffffffffffff1673ffffffffffffffffffffffffffffffffffffffff1614159050919050565b600033905090565b816004600083815260200190815260200160002060006101000a81548173ffffffffffffffffffffffffffffffffffffffff021916908373ffffffffffffffffffffffffffffffffffffffff160217905550808273ffffffffffffffffffffffffffffffffffffffff166110d98361092b565b73ffffffffffffffffffffffffffffffffffffffff167f8c5be1e5ebec7d5bd14f71427d1e84f3dd0314c0f7b2291e5b200ac8c7c3b92560405160405180910390a45050565b61112882610ff2565b611167576040517f08c379a000000000000000000000000000000000000000000000000000000000815260040161115e906129b9565b60405180910390fd5b8060066000848152602001908152602001600020908051906020019061118e929190611f5f565b505050565b600061119e82610ff2565b6111dd576040517f08c379a00000000000000000000000000000000000000000000000000000000081526004016111d490612939565b60405180910390fd5b60006111e88361092b565b90508073ffffffffffffffffffffffffffffffffffffffff168473ffffffffffffffffffffffffffffffffffffffff16148061122a57506112298185610dfc565b5b8061126857508373ffffffffffffffffffffffffffffffffffffffff166112508461051a565b73ffffffffffffffffffffffffffffffffffffffff16145b91505092915050565b8273ffffffffffffffffffffffffffffffffffffffff166112918261092b565b73ffffffffffffffffffffffffffffffffffffffff16146112e7576040517f08c379a00000000000000000000000000000000000000000000000000000000081526004016112de90612899565b60405180910390fd5b600073ffffffffffffffffffffffffffffffffffffffff168273ffffffffffffffffffffffffffffffffffffffff161415611357576040517f08c379a000000000000000000000000000000000000000000000000000000000815260040161134e906128d9565b60405180910390fd5b6113628383836118fb565b61136d600082611066565b6001600360008573ffffffffffffffffffffffffffffffffffffffff1673ffffffffffffffffffffffffffffffffffffffff16815260200190815260200160002060008282546113bd9190612c45565b925050819055506001600360008473ffffffffffffffffffffffffffffffffffffffff1673ffffffffffffffffffffffffffffffffffffffff16815260200190815260200160002060008282546114149190612bbe565b92505081905550816002600083815260200190815260200160002060006101000a81548173ffffffffffffffffffffffffffffffffffffffff021916908373ffffffffffffffffffffffffffffffffffffffff160217905550808273ffffffffffffffffffffffffffffffffffffffff168473ffffffffffffffffffffffffffffffffffffffff167fddf252ad1be2c89b69c2b068fc378daa952ba7f163c4a11628f55a4df523b3ef60405160405180910390a46114d3838383611900565b505050565b6000600760009054906101000a900473ffffffffffffffffffffffffffffffffffffffff16905081600760006101000a81548173ffffffffffffffffffffffffffffffffffffffff021916908373ffffffffffffffffffffffffffffffffffffffff1602179055508173ffffffffffffffffffffffffffffffffffffffff168173ffffffffffffffffffffffffffffffffffffffff167f8be0079c531659141344cd1fd0a4f28419497f9722a3daafe3b4186f6b6457e060405160405180910390a35050565b8173ffffffffffffffffffffffffffffffffffffffff168373ffffffffffffffffffffffffffffffffffffffff16141561160d576040517f08c379a000000000000000000000000000000000000000000000000000000000815260040161160490612919565b60405180910390fd5b80600560008573ffffffffffffffffffffffffffffffffffffffff1673ffffffffffffffffffffffffffffffffffffffff16815260200190815260200160002060008473ffffffffffffffffffffffffffffffffffffffff1673ffffffffffffffffffffffffffffffffffffffff16815260200190815260200160002060006101000a81548160ff0219169083151502179055508173ffffffffffffffffffffffffffffffffffffffff168373ffffffffffffffffffffffffffffffffffffffff167f17307eab39ab6107e8899845ad3d59bd9653f200f220920489ca2b5937696c31836040516116fe919061281c565b60405180910390a3505050565b611716848484611271565b61172284848484611905565b611761576040517f08c379a000000000000000000000000000000000000000000000000000000000815260040161175890612859565b60405180910390fd5b50505050565b600081600001549050919050565b6001816000016000828254019250508190555050565b6117a5828260405180602001604052806000815250611a9c565b5050565b60606117b482610ff2565b6117f3576040517f08c379a00000000000000000000000000000000000000000000000000000000081526004016117ea90612a19565b60405180910390fd5b600060066000848152602001908152602001600020805461181390612d2f565b80601f016020809104026020016040519081016040528092919081815260200182805461183f90612d2f565b801561188c5780601f106118615761010080835404028352916020019161188c565b820191906000526020600020905b81548152906001019060200180831161186f57829003601f168201915b50505050509050600061189d611af7565b90506000815114156118b35781925050506118f6565b6000825111156118e85780826040516020016118d0929190612791565b604051602081830303815290604052925050506118f6565b6118f184611b0e565b925050505b919050565b505050565b505050565b60006119268473ffffffffffffffffffffffffffffffffffffffff16611bb5565b15611a8f578373ffffffffffffffffffffffffffffffffffffffff1663150b7a0261194f61105e565b8786866040518563ffffffff1660e01b815260040161197194939291906127d0565b602060405180830381600087803b15801561198b57600080fd5b505af19250505080156119bc57506040513d601f19601f820116820180604052508101906119b9919061230b565b60015b611a3f573d80600081146119ec576040519150601f19603f3d011682016040523d82523d6000602084013e6119f1565b606091505b50600081511415611a37576040517f08c379a0000000000000000000000000000000000000000000000000000000008152600401611a2e90612859565b60405180910390fd5b805181602001fd5b63150b7a0260e01b7bffffffffffffffffffffffffffffffffffffffffffffffffffffffff1916817bffffffffffffffffffffffffffffffffffffffffffffffffffffffff191614915050611a94565b600190505b949350505050565b611aa68383611bd8565b611ab36000848484611905565b611af2576040517f08c379a0000000000000000000000000000000000000000000000000000000008152600401611ae990612859565b60405180910390fd5b505050565b606060405180602001604052806000815250905090565b6060611b1982610ff2565b611b58576040517f08c379a0000000000000000000000000000000000000000000000000000000008152600401611b4f90612a79565b60405180910390fd5b6000611b62611af7565b90506000815111611b825760405180602001604052806000815250611bad565b80611b8c84611db2565b604051602001611b9d929190612791565b6040516020818303038152906040525b915050919050565b6000808273ffffffffffffffffffffffffffffffffffffffff163b119050919050565b600073ffffffffffffffffffffffffffffffffffffffff168273ffffffffffffffffffffffffffffffffffffffff161415611c48576040517f08c379a0000000000000000000000000000000000000000000000000000000008152600401611c3f906129f9565b60405180910390fd5b611c5181610ff2565b15611c91576040517f08c379a0000000000000000000000000000000000000000000000000000000008152600401611c88906128b9565b60405180910390fd5b611c9d600083836118fb565b6001600360008473ffffffffffffffffffffffffffffffffffffffff1673ffffffffffffffffffffffffffffffffffffffff1681526020019081526020016000206000828254611ced9190612bbe565b92505081905550816002600083815260200190815260200160002060006101000a81548173ffffffffffffffffffffffffffffffffffffffff021916908373ffffffffffffffffffffffffffffffffffffffff160217905550808273ffffffffffffffffffffffffffffffffffffffff16600073ffffffffffffffffffffffffffffffffffffffff167fddf252ad1be2c89b69c2b068fc378daa952ba7f163c4a11628f55a4df523b3ef60405160405180910390a4611dae60008383611900565b5050565b60606000821415611dfa576040518060400160405280600181526020017f30000000000000000000000000000000000000000000000000000000000000008152509050611f5a565b600082905060005b60008214611e2c578080611e1590612d92565b915050600a82611e259190612c14565b9150611e02565b60008167ffffffffffffffff811115611e6e577f4e487b7100000000000000000000000000000000000000000000000000000000600052604160045260246000fd5b6040519080825280601f01601f191660200182016040528015611ea05781602001600182028036833780820191505090505b5090505b60008514611f5357600182611eb99190612c45565b9150600a85611ec89190612ddb565b6030611ed49190612bbe565b60f81b818381518110611f10577f4e487b7100000000000000000000000000000000000000000000000000000000600052603260045260246000fd5b60200101907effffffffffffffffffffffffffffffffffffffffffffffffffffffffffffff1916908160001a905350600a85611f4c9190612c14565b9450611ea4565b8093505050505b919050565b828054611f6b90612d2f565b90600052602060002090601f016020900481019282611f8d5760008555611fd4565b82601f10611fa657805160ff1916838001178555611fd4565b82800160010185558215611fd4579182015b82811115611fd3578251825591602001919060010190611fb8565b5b509050611fe19190611fe5565b5090565b5b80821115611ffe576000816000905550600101611fe6565b5090565b600061201561201084612b19565b612af4565b90508281526020810184848401111561202d57600080fd5b612038848285612ced565b509392505050565b600061205361204e84612b4a565b612af4565b90508281526020810184848401111561206b57600080fd5b612076848285612ced565b509392505050565b60008135905061208d81613421565b92915050565b6000813590506120a281613438565b92915050565b6000813590506120b78161344f565b92915050565b6000815190506120cc8161344f565b92915050565b600082601f8301126120e357600080fd5b81356120f3848260208601612002565b91505092915050565b600082601f83011261210d57600080fd5b813561211d848260208601612040565b91505092915050565b60008135905061213581613466565b92915050565b60006020828403121561214d57600080fd5b600061215b8482850161207e565b91505092915050565b6000806040838503121561217757600080fd5b60006121858582860161207e565b92505060206121968582860161207e565b9150509250929050565b6000806000606084860312156121b557600080fd5b60006121c38682870161207e565b93505060206121d48682870161207e565b92505060406121e586828701612126565b9150509250925092565b6000806000806080858703121561220557600080fd5b60006122138782880161207e565b94505060206122248782880161207e565b935050604061223587828801612126565b925050606085013567ffffffffffffffff81111561225257600080fd5b61225e878288016120d2565b91505092959194509250565b6000806040838503121561227d57600080fd5b600061228b8582860161207e565b925050602061229c85828601612093565b9150509250929050565b600080604083850312156122b957600080fd5b60006122c78582860161207e565b92505060206122d885828601612126565b9150509250929050565b6000602082840312156122f457600080fd5b6000612302848285016120a8565b91505092915050565b60006020828403121561231d57600080fd5b600061232b848285016120bd565b91505092915050565b6000806040838503121561234757600080fd5b600083013567ffffffffffffffff81111561236157600080fd5b61236d858286016120fc565b925050602061237e8582860161207e565b9150509250929050565b60006020828403121561239a57600080fd5b60006123a884828501612126565b91505092915050565b600080604083850312156123c457600080fd5b60006123d285828601612126565b925050602083013567ffffffffffffffff8111156123ef57600080fd5b6123fb858286016120fc565b9150509250929050565b61240e81612c79565b82525050565b61241d81612c8b565b82525050565b600061242e82612b7b565b6124388185612b91565b9350612448818560208601612cfc565b61245181612ec8565b840191505092915050565b600061246782612b86565b6124718185612ba2565b9350612481818560208601612cfc565b61248a81612ec8565b840191505092915050565b60006124a082612b86565b6124aa8185612bb3565b93506124ba818560208601612cfc565b80840191505092915050565b60006124d3603283612ba2565b91506124de82612ed9565b604082019050919050565b60006124f6602683612ba2565b915061250182612f28565b604082019050919050565b6000612519602583612ba2565b915061252482612f77565b604082019050919050565b600061253c601c83612ba2565b915061254782612fc6565b602082019050919050565b600061255f602483612ba2565b915061256a82612fef565b604082019050919050565b6000612582601283612ba2565b915061258d8261303e565b602082019050919050565b60006125a5601983612ba2565b91506125b082613067565b602082019050919050565b60006125c8602c83612ba2565b91506125d382613090565b604082019050919050565b60006125eb603883612ba2565b91506125f6826130df565b604082019050919050565b600061260e602a83612ba2565b91506126198261312e565b604082019050919050565b6000612631602983612ba2565b915061263c8261317d565b604082019050919050565b6000612654602e83612ba2565b915061265f826131cc565b604082019050919050565b6000612677601883612ba2565b91506126828261321b565b602082019050919050565b600061269a602083612ba2565b91506126a582613244565b602082019050919050565b60006126bd603183612ba2565b91506126c88261326d565b604082019050919050565b60006126e0602c83612ba2565b91506126eb826132bc565b604082019050919050565b6000612703602083612ba2565b915061270e8261330b565b602082019050919050565b6000612726602f83612ba2565b915061273182613334565b604082019050919050565b6000612749602183612ba2565b915061275482613383565b604082019050919050565b600061276c603183612ba2565b9150612777826133d2565b604082019050919050565b61278b81612ce3565b82525050565b600061279d8285612495565b91506127a98284612495565b91508190509392505050565b60006020820190506127ca6000830184612405565b92915050565b60006080820190506127e56000830187612405565b6127f26020830186612405565b6127ff6040830185612782565b81810360608301526128118184612423565b905095945050505050565b60006020820190506128316000830184612414565b92915050565b60006020820190508181036000830152612851818461245c565b905092915050565b60006020820190508181036000830152612872816124c6565b9050919050565b60006020820190508181036000830152612892816124e9565b9050919050565b600060208201905081810360008301526128b28161250c565b9050919050565b600060208201905081810360008301526128d28161252f565b9050919050565b600060208201905081810360008301526128f281612552565b9050919050565b6000602082019050818103600083015261291281612575565b9050919050565b6000602082019050818103600083015261293281612598565b9050919050565b60006020820190508181036000830152612952816125bb565b9050919050565b60006020820190508181036000830152612972816125de565b9050919050565b6000602082019050818103600083015261299281612601565b9050919050565b600060208201905081810360008301526129b281612624565b9050919050565b600060208201905081810360008301526129d281612647565b9050919050565b600060208201905081810360008301526129f28161266a565b9050919050565b60006020820190508181036000830152612a128161268d565b9050919050565b60006020820190508181036000830152612a32816126b0565b9050919050565b60006020820190508181036000830152612a52816126d3565b9050919050565b60006020820190508181036000830152612a72816126f6565b9050919050565b60006020820190508181036000830152612a9281612719565b9050919050565b60006020820190508181036000830152612ab28161273c565b9050919050565b60006020820190508181036000830152612ad28161275f565b9050919050565b6000602082019050612aee6000830184612782565b92915050565b6000612afe612b0f565b9050612b0a8282612d61565b919050565b6000604051905090565b600067ffffffffffffffff821115612b3457612b33612e99565b5b612b3d82612ec8565b9050602081019050919050565b600067ffffffffffffffff821115612b6557612b64612e99565b5b612b6e82612ec8565b9050602081019050919050565b600081519050919050565b600081519050919050565b600082825260208201905092915050565b600082825260208201905092915050565b600081905092915050565b6000612bc982612ce3565b9150612bd483612ce3565b9250827fffffffffffffffffffffffffffffffffffffffffffffffffffffffffffffffff03821115612c0957612c08612e0c565b5b828201905092915050565b6000612c1f82612ce3565b9150612c2a83612ce3565b925082612c3a57612c39612e3b565b5b828204905092915050565b6000612c5082612ce3565b9150612c5b83612ce3565b925082821015612c6e57612c6d612e0c565b5b828203905092915050565b6000612c8482612cc3565b9050919050565b60008115159050919050565b60007fffffffff0000000000000000000000000000000000000000000000000000000082169050919050565b600073ffffffffffffffffffffffffffffffffffffffff82169050919050565b6000819050919050565b82818337600083830152505050565b60005b83811015612d1a578082015181840152602081019050612cff565b83811115612d29576000848401525b50505050565b60006002820490506001821680612d4757607f821691505b60208210811415612d5b57612d5a612e6a565b5b50919050565b612d6a82612ec8565b810181811067ffffffffffffffff82111715612d8957612d88612e99565b5b80604052505050565b6000612d9d82612ce3565b91507fffffffffffffffffffffffffffffffffffffffffffffffffffffffffffffffff821415612dd057612dcf612e0c565b5b600182019050919050565b6000612de682612ce3565b9150612df183612ce3565b925082612e0157612e00612e3b565b5b828206905092915050565b7f4e487b7100000000000000000000000000000000000000000000000000000000600052601160045260246000fd5b7f4e487b7100000000000000000000000000000000000000000000000000000000600052601260045260246000fd5b7f4e487b7100000000000000000000000000000000000000000000000000000000600052602260045260246000fd5b7f4e487b7100000000000000000000000000000000000000000000000000000000600052604160045260246000fd5b6000601f19601f8301169050919050565b7f4552433732313a207472616e7366657220746f206e6f6e20455243373231526560008201527f63656976657220696d706c656d656e7465720000000000000000000000000000602082015250565b7f4f776e61626c653a206e6577206f776e657220697320746865207a65726f206160008201527f6464726573730000000000000000000000000000000000000000000000000000602082015250565b7f4552433732313a207472616e736665722066726f6d20696e636f72726563742060008201527f6f776e6572000000000000000000000000000000000000000000000000000000602082015250565b7f4552433732313a20746f6b656e20616c7265616479206d696e74656400000000600082015250565b7f4552433732313a207472616e7366657220746f20746865207a65726f2061646460008201527f7265737300000000000000000000000000000000000000000000000000000000602082015250565b7f4e465420616c7265616479206d696e7465640000000000000000000000000000600082015250565b7f4552433732313a20617070726f766520746f2063616c6c657200000000000000600082015250565b7f4552433732313a206f70657261746f7220717565727920666f72206e6f6e657860008201527f697374656e7420746f6b656e0000000000000000000000000000000000000000602082015250565b7f4552433732313a20617070726f76652063616c6c6572206973206e6f74206f7760008201527f6e6572206e6f7220617070726f76656420666f7220616c6c0000000000000000602082015250565b7f4552433732313a2062616c616e636520717565727920666f7220746865207a6560008201527f726f206164647265737300000000000000000000000000000000000000000000602082015250565b7f4552433732313a206f776e657220717565727920666f72206e6f6e657869737460008201527f656e7420746f6b656e0000000000000000000000000000000000000000000000602082015250565b7f45524337323155524953746f726167653a2055524920736574206f66206e6f6e60008201527f6578697374656e7420746f6b656e000000000000000000000000000000000000602082015250565b7f416464726573732063616e20616c7265616479206d696e740000000000000000600082015250565b7f4552433732313a206d696e7420746f20746865207a65726f2061646472657373600082015250565b7f45524337323155524953746f726167653a2055524920717565727920666f722060008201527f6e6f6e6578697374656e7420746f6b656e000000000000000000000000000000602082015250565b7f4552433732313a20617070726f76656420717565727920666f72206e6f6e657860008201527f697374656e7420746f6b656e0000000000000000000000000000000000000000602082015250565b7f4f776e61626c653a2063616c6c6572206973206e6f7420746865206f776e6572600082015250565b7f4552433732314d657461646174613a2055524920717565727920666f72206e6f60008201527f6e6578697374656e7420746f6b656e0000000000000000000000000000000000602082015250565b7f4552433732313a20617070726f76616c20746f2063757272656e74206f776e6560008201527f7200000000000000000000000000000000000000000000000000000000000000602082015250565b7f4552433732313a207472616e736665722063616c6c6572206973206e6f74206f60008201527f776e6572206e6f7220617070726f766564000000000000000000000000000000602082015250565b61342a81612c79565b811461343557600080fd5b50565b61344181612c8b565b811461344c57600080fd5b50565b61345881612c97565b811461346357600080fd5b50565b61346f81612ce3565b811461347a57600080fd5b5056fea26469706673582212209858206827e0d9a0840fcb291e0a9d2c104c7190334e3900ef4a1024e2b1295664736f6c63430008040033",
  "linkReferences": {},
  "deployedLinkReferences": {}
}